:020000040800F2
:10000000D806002099010008A1010008A3010008FA
:10001000A5010008A7010008A901000800000000D0
:10002000000000000000000000000000AB0100081C
:10003000AD01000800000000AF010008B101000898
:10004000B3010008B3010008B3010008B3010008C0
:10005000B3010008B3010008B3010008B3010008B0
:10006000B301000899040008B3010008B3010008B7
:10007000B3010008B3010008B3010008B301000890
:10008000B3010008B3010008B3010008B301000880
:10009000B3010008B3010008B3010008B301000870
:1000A000B3010008B3010008B3010008B301000860
:1000B000B3010008B3010008B3010008B301000850
:1000C000B3010008B3010008B3010008B301000840
:1000D000B3010008B3010008B3010008B301000830
:1000E000B3010008B3010008B301000800F002F8F2
:1000F00000F042F80AA090E8000C82448344AAF180
:100100000107DA4501D100F037F8AFF2090EBAE87D
:100110000F0013F0010F18BFFB1A43F0010318473B
:10012000E00E0000000F0000103A24BF78C878C12C
:10013000FAD8520724BF30C830C144BF04680C60ED
:10014000704700000023002400250026103A28BF35
:1001500078C1FBD8520728BF30C148BF0B60704739
:10016000642900F04D80752900F04A800020704716
:100170001FB51FBD10B510BD00F053F91146FFF7B4
:10018000F7FF00F0D1FE00F071F903B4FFF7F2FFC2
:1001900003BC00F079F9000009488047094800478E
:1001A000FEE7FEE7FEE7FEE7FEE7FEE7FEE7FEE727
:1001B000FEE7FEE704480549054A064B7047000084
:1001C000910B0008ED000008D8000020D8060020A0
:1001D000D8020020D80200200FB41CB5074B06AA95
:1001E0007B4469460090059800F003F900206946B9
:1001F00000F012F91CBC5DF814FB00003502000091
:100200002DE9F0410646002410687529314616A5EF
:1002100010D0AFF30080002802DA404213A507E0B7
:1002200031688A0701D512A502E0490704D511A556
:10023000012401E0AFF3008000210A2206F1240727
:1002400009E0B0FBF2FCB0FBF2F302FB1C00303023
:1002500078541846491C0028F3D123462A463046D4
:10026000BDE8F04100F067B8000000002D0000007C
:100270002B000000200000002DE9F0410F4605464C
:10028000002028622846E968884770B3252805D0F1
:10029000D5E901219047286A401CF2E7E968284621
:1002A000002688476C2804460AD0682C08D04C2CBD
:1002B00035D06A2C31D0742C31D07A2C2FD016E066
:1002C000E968064628468847B042044608D16C2EA5
:1002D00023D04FF480662846E9688847044606E044
:1002E0006C2E03D04FF4807601E01EE04026E4B18E
:1002F000A4F14100192802D8203446F400663A4699
:10030000214628462E60FFF72BFF60B1012808D058
:10031000FF1D27F007070837B4E78026DBE7002634
:10032000D9E73F1DAEE72046B2E7286ABDE8F08175
:100330007047704770472DE9F0470D469946924641
:10034000044600F124080168880604D5E06921F01C
:100350001001216000E00120A84201DD471B00E000
:100360000027A1697A1902EB0900081AA061207818
:10037000C00602D42046AFF30080002608E0D4E98E
:1003800001211AF806009047206A401C761C206262
:100390004E45F4DB2078C0060AD52046AFF3008036
:1003A00006E0D4E9012130209047206A401C2062F9
:1003B000381EA7F10107F4DC07E0D4E9012118F8A1
:1003C00005009047206A401C2062281EA5F1010507
:1003D000F3DC2046AFF300802078000602D502202F
:1003E000BDE8F0870120FBE701694A1C026108783B
:1003F000704700B58FB0CDE9013100210591054965
:100400007944CDE9031011466846FFF735FF0FB078
:1004100000BD0000E5FFFFFF0A6802F8010B0A605B
:100420007047754600F02CF8AE4605006946534605
:1004300020F00700854618B020B5FFF7BBFEBDE8E9
:1004400020404FF000064FF000074FF000084FF03B
:10045000000B21F00701AC46ACE8C009ACE8C009CC
:10046000ACE8C009ACE8C0098D46704710B5044639
:10047000AFF300802046BDE81040FFF786BE0000C5
:10048000004870477400002001491820ABBEFEE709
:100490002600020070470000F8B5082000F04CF874
:1004A00000281DD000F05AF9044608210D4800F03C
:1004B0004CF905460C480068261A0C48009503784C
:1004C00032460BA11848FFF787FE174800F03CFCA6
:1004D0000548046005480570082000F027F800BFB3
:1004E000F8BD0000000C01400000002004000020C6
:1004F000446966663A20256C75207573207C204C13
:10050000617374204C6576656C3A202564202D3E1D
:100510002043757272656E74204C6576656C3A2066
:1005200025640D0A00000000340000200149086025
:100530007047000014040140014600200022074BD0
:100540001B6803EA0102054B14331B680B4013B10F
:100550000AB1012000E000207047000000040140C3
:10056000002123498279002A3AD00A46126803689A
:100570009A430B461A600A1D126803689A430B1DC2
:100580001A60027911440A6803681A430A60184A1B
:100590000832126803689A43154B08331A601A1D13
:1005A000126803689A43124B0C331A604279102A7E
:1005B0000ED11A1F126803681A430D4B08331A60D4
:1005C0001A1D126803681A43094B0C331A600DE0B8
:1005D0000749427911440A6803681A430A6005E032
:1005E000027911440A6803689A430A607047000060
:1005F0000004014030B500228B071C0F0F2303FAC3
:1006000004F20B4B8C1053F824309343084C8D109C
:1006100044F8253023468C1053F824308C07240FDF
:1006200000FA04F42343024C8D1044F8253030BD09
:10063000080001402DE9F041024600250026002077
:1006400000230024002791F803C00CF00F0591F857
:1006500003C00CF0100CBCF1000F03D091F802C0E5
:100660004CEA050591F800C0BCF1000F31D01468C8
:1006700000202BE04FF0010C0CFA00F3B1F800C0A1
:100680000CEA03069E4220D183004FF00F0C0CFAB7
:1006900003F7BC4305FA03FC4CEA040491F803C0D9
:1006A000BCF1280F06D14FF0010C0CFA00FCC2F887
:1006B00014C00AE091F803C0BCF1480F05D14FF017
:1006C000010C0CFA00FCC2F810C0401C0828D1D361
:1006D0001460B1F800C0BCF1FF0F34DD5468002095
:1006E0002EE000F1080C4FF0010808FA0CF3B1F805
:1006F00000C00CEA03069E4221D183004FF00F0C8C
:100700000CFA03F7BC4305FA03FC4CEA040491F825
:1007100003C0BCF1280F05D100F1080C08FA0CF851
:10072000C2F8148091F803C0BCF1480F07D100F162
:10073000080C4FF0010808FA0CF8C2F81080401CB1
:100740000828CED35460BDE8F081024600209368AB
:100750000B400BB1012000E00020704701480088E9
:10076000704700002408004070B5002100230F22CC
:10077000C47804B3154C246804F4E064C4F5E06460
:10078000210AC1F10403CA40447804FA03F18478D1
:100790001440214309010E4C0678A155047804F059
:1007A0001F050124AC4005786D11AD0005F1E02571
:1007B000C5F8004109E0047804F01F050124AC40AD
:1007C000044D0678761145F8264070BD0CED00E02A
:1007D00000E400E080E100E01FB50121092000F005
:1007E00071F80820ADF80C0048208DF80F000320A8
:1007F0008DF80E0003A91C48FFF71CFF0321012000
:10080000FFF7F8FE0820019000208DF80800102066
:100810008DF8090001208DF80A0001A8FFF7A0FE5D
:1008200009208DF8000000208DF801008DF80200ED
:1008300001208DF803006846FFF796FFFFF78EFF53
:100840000A49086008210848FFF77FFF0849087037
:10085000064803680846027806A11148FFF7BCFC69
:100860000F4800F071FA1FBD000C0140000000208D
:1008700004000020496E69743A20504233204C65D0
:1008800076656C203D2025642C2054696D65737459
:10089000616D70203D20256C752075730D0A000078
:1008A0003400002029B1064AD2690243044BDA61C0
:1008B00004E0034AD2698243014BDA6170470000C9
:1008C0000010024029B1064A92690243044B9A6122
:1008D00004E0034A92698243014B9A617047000029
:1008E0000010024030B500210022002400232D4DCD
:1008F0006D6805F00C0121B1042905D0082923D128
:1009000005E0294D056022E0274D05601FE0254DDB
:100910006D6805F47012234D6D6805F4803402256E
:1009200005EB92421CB9214D554305600BE01D4D6E
:100930006D6805F400351DB11C4D5543056002E09E
:10094000194D5543056002E0174D056000BF00BF1B
:10095000144D6D6805F0F0010909154D6B5C0568D3
:10096000DD4045600F4D6D6805F4E061090A104DEA
:100970006B5C4568DD4085600A4D6D6805F460512B
:10098000C90A0B4D6B5C4568DD40C560054D6D685F
:1009900005F44041890B074D6B5CC568B5FBF3F569
:1009A000056130BD0010024000127A0000093D00D0
:1009B0000C0000201C00002010B50146002200237E
:1009C00000204A11012A02D1094C236806E0022ABC
:1009D00002D1074C236A01E0054C636A01F01F0253
:1009E000012494401C400CB1012000E0002010BD07
:1009F000001002401149096821F480310F4A11604A
:100A00001146096821F480211160B0F5803F03D0C0
:100A1000B0F5802F0ED106E00849096841F4803115
:100A2000064A116007E00549096841F4A021034A1C
:100A3000116000E000BF00BF7047000000100240DE
:100A4000014908667047000000004242024600204B
:100A5000044B586820F47C1042EA01031843014B10
:100A6000586070470010024001460020034A506859
:100A700020F003000843506070470000001002405F
:100A800010B500F001F810BD0CB5002001900090E9
:100A90003348006840F480303149086000BF304876
:100AA000006800F4003000900198401C019000980C
:100AB00018B90198B0F5A06FF1D12948006800F489
:100AC000003010B10120009001E00020009000985B
:100AD000012843D12348006840F0100021490860F4
:100AE0000846006820F0030008600846006840F0EF
:100AF000020008601A484068194948600846406882
:100B000048600846406840F4806048600846406895
:100B100020F47C1048600846406840F4E8104860C3
:100B20000846006840F08070086000BF0C4800680C
:100B300000F000700028F9D00948406820F0030058
:100B4000074948600846406840F00200486000BF1E
:100B50000348406800F00C000828F9D10CBD0000E3
:100B60000010024000200240042808D14FF0E0218C
:100B7000096941F004014FF0E022116107E04FF0F4
:100B8000E021096921F004014FF0E0221161704772
:100B900010B51348006840F001001149086008468C
:100BA0004068104908400E494860084600680E49F0
:100BB00008400B4908600846006820F4802008605F
:100BC0000846406820F4FE0048604FF41F0088602B
:100BD000FFF756FF4FF000600449086010BD0000A9
:100BE000001002400000FFF8FFFFF6FE08ED00E0F5
:100BF0000EB501210420FFF755FE4FF6FF70ADF84A
:100C000004004720ADF800000020ADF80600ADF864
:100C100002006946034800F013F80121014800F082
:100C200003F80EBD0008004021B1028842F0010225
:100C3000028004E002884FF6FE731A40028070477B
:100C4000002202881D4B98420ED01D4B98420BD0BB
:100C5000B0F1804F08D01B4B984205D01A4B9842F8
:100C600002D01A4B984204D14FF68F731A404B882A
:100C70001A43174B984207D0164B984204D04FF6B0
:100C8000FF431A40CB881A4302808B8883850B88E8
:100C900003850A4B98420BD0094B984208D00E4B63
:100CA000984205D00D4B984202D00D4B984201D18D
:100CB0000B7A03860123838270470000002C0140D9
:100CC000003401400004004000080040000C0040D7
:100CD000001000400014004000400140004401406A
:100CE0000048014000B585B0012144F20400FFF73F
:100CF000E9FD4FF40070ADF8100018208DF81300D6
:100D000003208DF8120004A90D48FFF793FC4FF45F
:100D1000E13000900020ADF80400ADF80600ADF819
:100D20000800ADF80C000820ADF80A006946054837
:100D300000F03AF80121034800F01CF805B000BDAE
:100D4000000801400038014010B504460BE021784E
:100D5000074800F095F800BF8021054800F016F81C
:100D60000028F9D0641C20780028F0D110BD0000C4
:100D70000038014021B1828942F40052828104E0AE
:100D800082894DF6FF731A40828170470246002027
:100D9000B1F5007F00D100BF13880B400BB10120DB
:100DA00000E00020704700002DE9F04786B00546BE
:100DB0000E460024A24600BFA1460027B08900B11C
:100DC00000BF2F462C8A4CF6FF700440F088044385
:100DD0002C82AC894EF6F3100440B0883189084368
:100DE000718908430443AC81AC8A4FF6FF4004404C
:100DF000B0890443AC8201A8FFF774FD1F48874205
:100E000002D1DDF810A001E0DDF80CA0A88900F403
:100E1000004040B10AEBCA0000EB0A1031684900FB
:100E2000B0FBF1F807E00AEBCA0000EB0A103168EA
:100E30008900B0FBF1F86420B8FBF0F00401200950
:100E4000642101FB1089A88900F4004040B13220E0
:100E500000EBC900B0FBF1F000F00700044308E02C
:100E6000322000EB09106421B0FBF1F000F00F001C
:100E700004432C8106B0BDE8F08700000038014033
:100E8000C1F308028280704710B56FF00400FFF7CD
:100E90006BFE0A4800680A49B0FBF1F00949087086
:100EA0000846007800EB4001C1EBC0104FF6FF711F
:100EB00001EAC0000449088010BD000020000020A5
:100EC00000127A000500002006000020014624E000
:100ED000144A12784FF47A735A434FF0E0235A6160
:100EE00000229A611A46126942F001021A6100BF9B
:100EF0004FF0E022106900F001021AB100F48032D4
:100F0000002AF5D04FF0E022126922F001024FF0E2
:100F1000E0231A6100229A6100BF081EA1F10101BD
:100F2000D6D17047050000204FF48030FFF762FDF6
:100F300000BF3120FFF740FD0028FAD04FF4E01148
:100F40004FF48030FFF782FD0120FFF779FD00BFED
:100F50003920FFF731FD0028FAD00220FFF784FD89
:100F6000FFF792FFFFF7BEFEFFF742FEFFF734FCEC
:100F70000BA0FFF7E9FE11E0154801680068401C6E
:100F8000134A1060B1F5967F05D312A0FFF7DCFE7F
:100F900000200F4908600A20FFF798FFECE70000E7
:100FA000504233205369676E616C204D6F6E6974D7
:100FB0006F722053746172742120507265737320B4
:100FC00049522052656D6F74652E2E2E0D0A000059
:100FD0000800002050726F6772616D2072756E6E2E
:100FE000696E672E2E2E205761697420666F7220FD
:100FF000504233207369676E616C0D0A0000000077
:101000002010000800000020340000002801000823
:101010005410000834000020A40600004401000819
:1010200000000000010000000000000000000000BF
:10103000010203040102030406070809020406086A
:1010400000A24A04000000000000000001020304A6
:04105000060708097E
:04000005080000ED02
:00000001FF
