:020000040800F2
:10000000B0070020A1010008A9010008AB01000809
:10001000AD010008AF010008B101000800000000B8
:10002000000000000000000000000000B301000814
:10003000B501000800000000B7010008B901000880
:10004000BB010008BB010008BB010008BB010008A0
:10005000BB010008BB010008BB010008BB01000890
:10006000BB010008BB010008BB010008BB01000880
:10007000BB010008BB010008BB010008BB01000870
:10008000BB010008BB010008BB010008BB01000860
:10009000BB010008BB010008BB010008BB01000850
:1000A000BB010008BB010008BB010008BB01000840
:1000B000BB010008BB010008BB010008BB01000830
:1000C000BB010008BB010008BB010008BB01000820
:1000D000BB010008C91E0008BB010008BB010008E5
:1000E000BB010008BB010008BB01000800F002F8DA
:1000F00000F047F80AA090E8000C82448344AAF17B
:100100000107DA4501D100F03CF8AFF2090EBAE878
:100110000F0013F0010F18BFFB1A43F0010318473B
:100120001027000030270000103A24BF78C878C19B
:10013000FAD8520724BF30C830C144BF04680C60ED
:10014000704700000023002400250026103A28BF35
:1001500078C1FBD8520728BF30C148BF0B60704739
:10016000662902F01983002070471FB500F002FBDA
:1001700004000020002102F005F9E0601FBD10B569
:1001800010BD00F0F3FB1146FFF7EFFF02F00AF895
:1001900000F011FC03B4FFF7F2FF03BC00F054FCC5
:1001A0000948804709480047FEE7FEE7FEE7FEE70B
:1001B000FEE7FEE7FEE7FEE7FEE7FEE70448054947
:1001C000054A064B70470000BD1A0008ED00000804
:1001D000B0010020B0070020B0030020B0030020D1
:1001E0000FB41CB5074B06AA7B44694600900598DE
:1001F00000F0A7FA0020694600F0B6FA1CBC5DF8D2
:1002000014FB00007D0500002DE9F0474FF0000AC7
:1002100089460446C0F820A02046E16888470028A7
:1002200076D0252806D0D4E901219047206A401CC9
:100230002062F1E7E168204600258847C4F81CA049
:1002400006460027C4F818A02A2E09D0304601F02F
:10025000A2FF38B304EB8708303EC8F8186019E0F5
:1002600059F8041B204604EB87029161E168884736
:10027000012F064618D1E069002820DA25F0200574
:100280001DE0D8F8180000EB800006EB4000303885
:10029000C8F818002046E1688847064601F07BFF51
:1002A0000028EED1012F0AD02E2E08D12046E16879
:1002B00088477F1C0646022F45F02005C4DBA06955
:1002C000002803DA404245F00105A061E80701D0AB
:1002D00025F01005B6B1A6F14100192802D8203644
:1002E00045F400654A463146204625604D46FFF7F5
:1002F00037FF58B1012806D0ED1D25F0070000F1A9
:10030000080989E704E005F1040985E730468AE732
:10031000206ABDE8F08770477047704770472DE945
:10032000FF4F0C461E464FF0FF378BB0D2E900015D
:10033000DDF860800A908A46C1F30A5505B93D464A
:10034000002108464FF00000BAF1000F00F4400011
:1003500005DA00EB80004FF4400101EA50004FEA5B
:100360009059B9F1010F00DDB9460A9850EA4A00E8
:100370000ED044F61050A5F2FF3545432F14B8F1C6
:10038000000F1ED07542291E1EDDC9F100021CE0BF
:10039000B8F1010F4FF0000001D0302103E0F2432B
:1003A00005E02154401CB042FBDB30460022002116
:1003B00021540B99C1F80880C1E900200FB0BDE8B5
:1003C000F08FBD1B6D1CDEE74A4600DA694206A8C5
:1003D00000F05AFA06AB93E8070003AB83E8070086
:1003E00050460A9900F037FB8DE80700A0F5005051
:1003F0001F3800900398002D09DD42F21F014A4684
:10040000084403A90390684600F096FD08E0A0F5B3
:1004100000504A461F3803A90390684600F0A0FD2B
:100420008DE807000004000C03D04FF0FF304108B6
:1004300000E01046B8F1000F03D0002200921546EC
:100440001EE0751E05D400F099F9303262556D1E1C
:10045000F9D5B3460122084302D000227F1C04E0F4
:100460002078302801D100227F1E002A099786D0EB
:100470001DE0112D07DA00F081F9303262556D1C54
:1004800050EA0102F5D1084302D00098C8B10EE04D
:100490000021681E05E0235C625C63542254401E08
:1004A000491C8142F7DBAB46A81B401E0990002087
:1004B00004F80B000B98099AC0F80880C0E9002BDB
:1004C0007CE711264FF0000859E72DE9F04F8846E8
:1004D0000446D21D22F0070191B0D1E90001CDE917
:1004E0000A0101F044FE02460B98C00F01D02D20F6
:1004F00007E02068810701D52B2002E0202101EAD6
:10050000C000032A099001D0072A05DB03464146B3
:10051000204600F079F90BE12078800601D5E069EA
:1005200000E00620B8F1650F814606D0B8F1660FED
:1005300018D0B8F1670F70D131E00020B9F1110F78
:10054000009001DB112301E009F101030AAA01A9CE
:100550000CA8FFF7E4FEDDE90C70002609F10105A7
:10056000834647E001204B4600904FF000470AAA1F
:1005700001A90CA8FFF7D3FEDDE90DB00C995D468B
:10058000002610B909F101000D18B9EB050003D4DC
:10059000C0F1FF3609F10105A5EB09002BE0B9F127
:1005A000010F01DA4FF001090020B9F1110F00909D
:1005B000484601DD112300E003460AAA01A90CA860
:1005C000FFF7ADFEDDE90C704D460026834620782E
:1005D00000070AD4AB4500DA5D4601A8012D04DD11
:1005E000411911F8011C302907D04F4502DA17F1E3
:1005F000040F04DA012082460FE06D1EEEE7002FA3
:1006000002DCED1B3E4403E0781CA84200DD7D1CAB
:10061000B81B00F1010A4FF000472078000703D40F
:10062000AA4501DB4FF0FF3A0021B7F1004F0DF171
:1006300043088DF8431024D002202B23002F01DA29
:100640007F422D230A21021EA0F1010000DC5FB1D0
:1006500097FBF1FC97FBF1F201FB1C7C17460CF1B8
:10066000300C08F801CDEEE7A8F1010003702188F5
:10067000090501D5452100E06521A0F1010800F838
:10068000011C09980FA9A1EB0807FF1D00B101206B
:10069000411901EBEA70A1693844081A401EA061B3
:1006A0002078C00602D42046AFF30080099828B114
:1006B000D4E901219047206A401C20622078C006BE
:1006C00022D52046AFF300801EE0002E04DBB345A8
:1006D00002DD01A8805D00E03020D4E901219047CF
:1006E000206A401C2062761CAAF101005FEA000A21
:1006F0000AD100F03FF8C0680168405CD4E90121EC
:100700009047206A401C2062281EA5F10105DCDC10
:1007100007E0D4E9012118F8010B9047206A401C3A
:100720002062381EA7F10107F3DC2046AFF30080FA
:10073000032011B043E6000001694A1C02610878F9
:10074000704700B58FB0CDE9013100210591054911
:100750007944CDE9031011466846FFF755FD0FB007
:1007600000BD0000E5FFFFFF0A6802F8010B0A6008
:1007700070470000004870477001002030B5B0F1AC
:100780000A024FEA900E71F100034EEA817EB0EB4F
:100790000E0061EB91014FEA101E4EEA017E10EB54
:1007A0000E0041EB11114FEA102E4EEA016E10EBD4
:1007B0000E0041EB11214FEA104E4EEA014E10EBB4
:1007C0000E0041EB1141401841F100014FEAD00009
:1007D00040EA41704FEAD10110EB80054FEA8104F5
:1007E00044EA907444EB01046D1944EB0404521B79
:1007F000A3414FF0000348BF0A3200D530BD401C72
:1008000041F1000130BD00002DE9F0411F460446D2
:1008100003260168072A01F4006004DB08B116A56D
:1008200005E016A503E008B115A500E015A521F027
:1008300010002060A069C01EA0610FB1401EA06121
:100840002046AFF300804FB1D4E9012138469047EC
:10085000206A401C2062C01C206206E0206AFAE781
:10086000D4E9012115F8010B9047761EF8D22046F5
:10087000AFF30080BDE8F0814E414E006E616E0026
:10088000494E4600696E66002DE9F04781461646DE
:100890008AB0334878440DC88DE80D00304878445C
:1008A000801C03AC0DC884E80D0041F69B30084461
:1008B000372190FBF1F290FBF1F5A5F1800501FBEA
:1008C00012041B3C02D56442012000E00020DFF846
:1008D00090A080460027FA44AAF1BE0A0DE0E00786
:1008E00009D03246684607EB47010AEB810100F068
:1008F00037FB8DE8070064107F1C002CEFD1184FE8
:100900007F44AC3F18E0E80714D007EB04100DF16A
:10091000180A90E80E008AE80E00C068F04201D183
:1009200098190890324606A903A800F019FB03ABFA
:1009300083E807006D10641C002DE4D1324669463F
:10094000B8F1000F03A802D000F0F6FA01E000F0C1
:1009500007FBC9E90001C9F808200AB0BDE8F08723
:10096000801F000000487047500100207546FFF7C7
:10097000F9FFAE4605006946534620F0070085465C
:1009800018B020B5FFF71AFCBDE820404FF0000674
:100990004FF000074FF000084FF0000B21F0070167
:1009A000AC46ACE8C009ACE8C009ACE8C009ACE8AA
:1009B000C0098D46704710B50446AFF3008020464D
:1009C000BDE81040FFF7E6BB4FF0013C50F8042BA8
:1009D00051F8043B9A4221D1A2EB0C03934313EA52
:1009E000CC1317D150F8042B51F8043B9A4215D17F
:1009F000A2EB0C03934313EACC130BD150F8042B56
:100A000051F8043B9A4209D1A2EB0C03934313EA39
:100A1000CC13DBD04FF00000704700BFD01A01BAF2
:100A2000B1FA81F101F0180122FA01F0CB40C1F1D5
:100A30002001DBB2C0B2C01A2CFA01F3D11A9143E3
:100A400011EAC311E6D1704701491820ABBEFEE799
:100A50002600020070475FEA400C08BF91F0000FCB
:100A60004FEA8C234FEAC12243EA51514FEA1C500E
:100A700018BF00F5F0404FEA300018BF41F00041C8
:100A80005FEA6C5C00F02980BCF1FF3F08BF40F0DA
:100A900080407047130C06BF12044FF0100C4FF04B
:100AA000000C130E04BF12020CF1080C130F04BF4C
:100AB00012010CF1040C930F04BF92000CF1020C14
:100AC000D30F04BF52000CF1010C11464FF000028D
:100AD000A0F11F00A0EB0C00704711F0004F08BF01
:100AE000704731F000413FF4D5AF0B0C06BF09044D
:100AF0004FF0100C4FF0000C0B0E04BF09020CF16C
:100B0000080C0B0F04BF09010CF1040C8B0F04BF80
:100B100089000CF1020CCB0F04BF49000CF1010C51
:100B2000CCF12003A0EB0C0022FA03F302FA0CF242
:100B300041EA030100F10100704720F07F4C80EA98
:100B4000030023F07F47ACEB070303F57C5300F071
:100B5000004003F1FF032DE980494FEA154B09B42A
:100B60004FEA144325EA0B4E24EA03480FF2042609
:100B700006EB132749083E785FEA320203FB06675B
:100B8000C7F5000707FB06F64FEA54374FEAD6468B
:100B900006F1020607FB066CCCF1005C4FEA1C472D
:100BA0002CEA074C07FB06F40CFB06F504EB154694
:100BB0004FEA961634BF00204FF000404FEAD1377D
:100BC00006FB07FC4FEA1C4C0CFB0BF7D21B03FB8C
:100BD0000CF761EB07010CFB0EF7B0EB074072EB73
:100BE00017420CFB08F734BFA2EB0742B2EB0742F7
:100BF00061EB17414FEA0C444FEA910706FB07FCF3
:100C00004FEA1C4C0CFB0BF7B0EBC74072EB5732B2
:100C100003FB0CF734BFA2EBC742B2EBC74261EB58
:100C200057310CFB0EF7B0EBC70072EB57720CFBA1
:100C300008F734BFA2EBC702B2EBC70261EB5771F2
:100C4000039F4FEA816141EA921104EBCC044FEA21
:100C5000D1374FEA826206FB07FC42EA90124FEA64
:100C600080604FEA1C4C0CFB0BF7D21B03FB0CF70C
:100C700061EB07010CFB0EF7B0EB074072EB17427C
:100C80000CFB08F734BFA2EB0742B2EB074261EB63
:100C900017414FEA8C554FEA910704EB9C2406FB61
:100CA00007FC4FEA1C4C0CFB0BF7B0EBC74072EB98
:100CB000573203FB0CF734BFA2EBC742B2EBC7427B
:100CC00061EB57310CFB0EF7B0EBC70072EB5772BC
:100CD0000CFB08F734BFA2EBC702B2EBC70261EB13
:100CE000577115EB4C254FEA816141EA92114FEAA9
:100CF00082624FEAD13742EA901206FB07FC44F1C8
:100D000000044FEA80604FEA1C4C0CFB0BF7D21B2F
:100D100003FB0CF761EB07010CFB0EF7B0EB074090
:100D200072EB17420CFB08F734BFA2EB0742B2EBA1
:100D3000074261EB174115EB1C154FEA813141EA7F
:100D400092414FEA823242EA90424FEA80304FEAC3
:100D50000C7644F1000448EA03434EEA0B484FF096
:100D6000000EB2EB080C71EB030724BF6246394654
:100D70004EEB0E0E4FF0000B0018524149414BEB69
:100D80000B0BB2EB080C71EB03077BF1000B24BFDC
:100D9000624639464EEB0E0E4FF0000B00185241E2
:100DA00049414BEB0B0BB2EB080C71EB03077BF1EA
:100DB000000B24BF624639464EEB0E0E51EA020785
:100DC00018BF46F0010616EB0E7655F1000254F1FD
:100DD000000103D5BDE88901BDE80088BDE88901AF
:100DE000BDE80048B619524141EB0101A3F10103EE
:100DF000704780807F7E7D7C7B7A79787776767588
:100E00007473727171706F6E6E6D6C6C6B6A6A69FF
:100E10006868676666656464636362616160605F99
:100E20005F5E5E5D5D5C5C5B5B5A5A595958585712
:100E3000575656555555545453535252525151507A
:100E400050504F4F4F4E4E4D4D4D4C4C4C4B4B4BCD
:100E50004A4A4A4949494848484747474746464613
:100E6000454545444444444343434342424242414E
:100E70004141002B26D4770021D01CB54FEA37071B
:100E800003B44FF010004FF010014FF000000FBC02
:100E9000BDE810400BF1010BBBF1010F08BF5FEA89
:100EA000170722BF12F1010211F101014FF00041B9
:100EB00043F1000300F0004043EA00007047F9D31B
:100EC0005708DAE746EA064613F1400F4FEA16469E
:100ED0001FDD13F1200FDFBF16430A460021203328
:100EE0005B42C8D0C3F1200746EA064602FA07F77C
:100EF0004FEA164646EA0706C3F1200722FA03F234
:100F000001FA07F721FA03F14FF0000342EA070262
:100F1000B1E746EA020646EA06464FEA164646EAC0
:100F20000106BCBF46EA0646360C4FF000034FF000
:100F300000024FF000019EE72DE9C048934630B40F
:100F400091E8380007C831EA400C48BF34EA430C46
:100F500003D5FFF7F2FDFFF78CFFF0BCBDE800887A
:100F60002DE9C048934630B491E8380007C810F026
:100F7000804F08BF13F0804F03D100F005F8FFF752
:100F800078FFF0BCBDE8008820F07F4780EA0300CE
:100F900023F07F4C07EB0C03A3F57C5300F00040DB
:100FA000A3F1FE0392F0000F00F0B38095F0000F64
:100FB00000F077802DE901494FEA11404FEA1446CD
:100FC00021EA004800FB06FC24EA064708FB06F677
:100FD00007FB08F800FB07F718EB06484CEB164C2C
:100FE0004FEA124B18EB07484FEA15464CEB1740F7
:100FF00022EA0B4E0BFB06FC25EA06470EFB06F623
:1010000007FB0EFE0BFB07F71EEB064E4CEB164CD8
:101010004FF000061EEB074E4CEB174B18EB0B087E
:1010200040F1000018EB0E0B58EB000840F10000F7
:101030008F1A4FF000013CBFC943661B14BFB5EBCC
:10104000040C00213CBFC943F61B4FEA17444EEA8B
:101050008E0E27EA04454FEA1C4704FB07622CEA80
:10106000074C05FB07F70CFB05F604FB0CFC16EB25
:10107000074642EB174216EB0C4642EB1C421BEBB9
:10108000060658EB0202414146EA9E0601D5BDE83C
:101090000189B619524141EB0101A3F10103BDE8F9
:1010A00001894FEA14454FEA114724EA054621EA2F
:1010B000074C05FB07F406FB07F70CFB06F105FBE5
:1010C0000CFC11EB074144EB17444FEA124711EBBC
:1010D0000C4144EB1C4422EA074C05FB07F206FBDB
:1010E00007F70CFB06F605FB0CFC16EB074642EB7C
:1010F000174216EB0C4642EB1C456A1854F10001EE
:1011000048BF7047B619524141EB0101A3F10103F9
:10111000704795F0000F37D04FEA11424FEA14475D
:1011200021EA024624EA074C02FB07F106FB07F717
:101130000CFB06F402FB0CFC14EB074441EB1741DB
:101140004FEA154714EB0C4441EB1C4125EA074CD0
:1011500002FB07F506FB07F70CFB06F602FB0CFC8F
:1011600016EB074645EB174516EB0C4645EB1C42C4
:10117000121951F1000148BF7047B619524141EBB5
:101180000101A3F1010370474FEA14454FEA1147EB
:1011900024EA054621EA074C05FB07F106FB07F7A1
:1011A0000CFB06F24FF0000605FB0CFC12EB0742AD
:1011B00041EB174112EB0C4251EB1C4148BF704709
:1011C000921841EB0101A3F1010370472DE9F041B1
:1011D000024600250026002000230024002791F865
:1011E00003C00CF00F0591F803C00CF0100CBCF11B
:1011F000000F03D091F802C04CEA050591F800C039
:10120000BCF1000F31D0146800202BE04FF0010C2E
:101210000CFA00F3B1F800C00CEA03069E4220D19C
:1012200083004FF00F0C0CFA03F7BC4305FA03FCE4
:101230004CEA040491F803C0BCF1280F06D14FF02A
:10124000010C0CFA00FCC2F814C00AE091F803C0CB
:10125000BCF1480F05D14FF0010C0CFA00FCC2F8AC
:1012600010C0401C0828D1D31460B1F800C0BCF1F4
:10127000FF0F34DD546800202EE000F1080C4FF021
:10128000010808FA0CF3B1F800C00CEA03069E420C
:1012900021D183004FF00F0C0CFA03F7BC4305FA81
:1012A00003FC4CEA040491F803C0BCF1280F05D1FB
:1012B00000F1080C08FA0CF8C2F8148091F803C089
:1012C000BCF1480F07D100F1080C4FF0010808FAF3
:1012D0000CF8C2F81080401C0828CED35460BDE83A
:1012E000F0810246002093680B400BB1012000E022
:1012F0000020704741617047016170471FB5044687
:1013000045492068884204D10121042000F0E8FA10
:1013100010E042492068884204D10121082000F0F1
:10132000DFFA07E03E492068884203D101211020FE
:1013300000F0D6FA3849A068884204D1012104207F
:1013400000F0CEFA10E03549A068884204D10121AE
:10135000082000F0C5FA07E03149A068884203D1AF
:101360000121102000F0BCFA2E492069884204D1E6
:101370000121C01400F0B4FA19E02069B0F1804FE7
:1013800004D10121084600F09BFA10E026492069AB
:10139000884204D10121022000F092FA07E023499B
:1013A0002069884203D10121042000F089FAA08835
:1013B000ADF80C0010208DF80F0003208DF80E0002
:1013C00003A92068FFF702FFA089ADF80C004820B0
:1013D0008DF80F0003A9A068FFF7F8FEA188206828
:1013E000FFF788FF4FF6FF70ADF804004720ADF817
:1013F00000000020ADF80600ADF802006946206943
:1014000000F010FD0121206900F094FB47F23050FC
:1014100060610020A0611FBD00080140000C014078
:1014200000100140002C0140000400400008004072
:101430002DE9F0470446A1882068FFF75DFF4FF0D3
:10144000000802E000BF08F10108B8F5347FF9D3C5
:10145000A1882068FFF74EFF002511E028466D1C8B
:101460006169884204D91C48A0610120BDE8F08769
:1014700000BF2069808C0128FBDB00202169888463
:10148000A189A068FFF72DFF0028E7D02069858C8F
:1014900009E02069808C401B6169884203D90E48AD
:1014A000A0610120E2E7A189A068FFF71AFF0128E7
:1014B000EFD02069868C771B384601F08DF8824684
:1014C000064901F09DF881464FF0804100F0A2FFEF
:1014D000A0610020CAE70000000080BF21930C3DFE
:1014E00010B54FF0804008490861084888604FF403
:1014F00080408881054808604FF400408880084695
:10150000FFF7FCFE10BD000074000020000C01403D
:1015100010B50C480C490860002088800B48886092
:10152000402088810A4808614020888208488861F4
:10153000802088830020C87746208877084600F0FE
:101540002BF810BD000400403400002000080140CA
:10155000000C014010B50C480C490860042088803C
:101560000B488860802088810A480861801588823D
:1015700008488861401588830020C877462088770E
:10158000084600F009F810BD000400405400002097
:1015900000080140000C014010B588B004467949AC
:1015A0002069884204D10121042000F099F910E05B
:1015B00075492069884204D10121082000F090F982
:1015C00007E072492069884203D10121102000F010
:1015D00087F96C49A069884204D10121042000F0F8
:1015E0007FF910E06849A069884204D101210820F0
:1015F00000F076F907E06549A069884203D101212E
:10160000102000F06DF95F49A068884204D10121E3
:10161000042000F065F910E05B49A068884204D11D
:101620000121082000F05CF907E05849A0688842D1
:1016300003D10121102000F053F955492068884258
:1016400004D10121C01400F04BF919E02068B0F179
:10165000804F04D10121084600F032F910E04D49D5
:101660002068884204D10121022000F029F907E016
:1016700049492068884203D10121042000F020F963
:10168000A08AA18B0843ADF81C0010208DF81F0024
:1016900003208DF81E0007A92069FFF797FDA08998
:1016A000ADF81C0018208DF81F0003208DF81E00D7
:1016B00007A9A068FFF78AFDA18A2069FFF71AFE33
:1016C000A18BA069FFF716FE40F2E730ADF81400D9
:1016D0004720ADF810000020ADF81600ADF812005C
:1016E00004A9206800F09EFB6020ADF800000120F6
:1016F000ADF802000020ADF80600ADF80800A088A3
:1017000040B96946206800F031FA0821206800F0ED
:1017100079FA22E0A088042808D16946206800F000
:101720007BFA0821206800F0C9FA16E0A088082892
:1017300008D16946206800F0CFFA0821206800F03F
:101740001BFB0AE0A0880C2807D16946206800F03E
:101750001DFB0821206800F057FB0121206800F0E4
:10176000DDF90121206800F0E5F909492068884287
:1017700003D10121206800F0E9F90020A077E0778B
:1017800008B010BD00080140000C014000100140ED
:10179000002C0140000400400008004070B50446E1
:1017A0000D46E57745B9A18A2069FFF7A5FDA18B14
:1017B000A069FFF79FFD07E0A18A2069FFF79AFD66
:1017C000A18BA069FFF798FD70BD00002DE9F047DF
:1017D00004460E46642E00DD6426A677304600F0EF
:1017E000FBFE8146124900F015FE8046114900F0CB
:1017F00007FF074600F0D0FE85B2A08830B104286C
:1018000007D0082808D00C280DD108E0206885866C
:101810000AE02068058707E02068858704E02068E3
:10182000A0F8405000E000BF00BFBDE8F087000016
:101830000000C84200C0794410B50446E17F20464C
:10184000FFF7ACFFA17F2046FFF7C0FF10BD0000EF
:1018500070B5002100230F22C47804B3154C24680E
:1018600004F4E064C4F5E064210AC1F10403CA4051
:10187000447804FA03F184781440214309010E4CA2
:101880000678A155047804F01F050124AC400578C2
:101890006D11AD0005F1E025C5F8004109E00478BF
:1018A00004F01F050124AC40044D0678761145F87C
:1018B000264070BD0CED00E000E400E080E100E0B7
:1018C00029B1064AD2690243044BDA6104E0034AB3
:1018D000D2698243014BDA61704700000010024078
:1018E00029B1064A92690243044B9A6104E0034A13
:1018F00092698243014B9A617047000000100240D8
:1019000030B500210022002400232D4D6D6805F024
:101910000C0121B1042905D0082923D105E0294D66
:10192000056022E0274D05601FE0254D6D6805F438
:101930007012234D6D6805F48034022505EB924248
:101940001CB9214D554305600BE01D4D6D6805F434
:1019500000351DB11C4D5543056002E0194D55433E
:10196000056002E0174D056000BF00BF144D6D68B3
:1019700005F0F0010909154D6B5C0568DD40456017
:101980000F4D6D6805F4E061090A104D6B5C456808
:10199000DD4085600A4D6D6805F46051C90A0B4D44
:1019A0006B5C4568DD40C560054D6D6805F44041E0
:1019B000890B074D6B5CC568B5FBF3F5056130BD60
:1019C0000010024000127A0000093D0020000020B3
:1019D0003000002010B500F001F810BD0CB500205B
:1019E000019000903348006840F48030314908602D
:1019F00000BF3048006800F4003000900198401C9F
:101A00000190009818B90198B0F5A06FF1D129485C
:101A1000006800F4003010B10120009001E00020C7
:101A200000900098012843D12348006840F010003E
:101A3000214908600846006820F003000860084655
:101A4000006840F0020008601A4840681949486080
:101A50000846406848600846406840F48060486036
:101A60000846406820F47C1048600846406840F40E
:101A7000E81048600846006840F08070086000BFC9
:101A80000C48006800F000700028F9D00948406850
:101A900020F00300074948600846406840F0020013
:101AA000486000BF0348406800F00C000828F9D1E6
:101AB0000CBD0000001002400020024010B5134889
:101AC000006840F00100114908600846406810496C
:101AD00008400E494860084600680E4908400B4916
:101AE00008600846006820F48020086008464068C6
:101AF00020F4FE0048604FF41F008860FFF76AFF83
:101B00004FF000600449086010BD00000010024062
:101B10000000FFF8FFFFF6FE08ED00E021B10288AB
:101B200042F08002028004E002884FF67F731A4080
:101B30000280704721B1028842F00102028004E075
:101B400002884FF6FE731A400280704731B1B0F838
:101B5000442042F40042A0F8442005E0B0F84420BC
:101B6000C2F30E02A0F844207047000070B50024B4
:101B700000220023058C4FF6FE7635400584028C4A
:101B80008388048B4FF68F752C40B51E2C400D8832
:101B90002C43751E2A400D892A434D882A43144D33
:101BA000A8420BD0134DA84208D0134DA84205D02F
:101BB000124DA84202D0124DA84213D14FF6F7752C
:101BC0002A404D892A434FF6FB752A408D882A43C7
:101BD0004FF6FF652B404FF6FF552B408D892B4369
:101BE000CD892B4383800483CD888586028470BD94
:101BF000002C0140003401400040014000440140FD
:101C0000004801400A460021018B4FF6F773194046
:101C1000114301837047000070B5002400220023A7
:101C2000058C4FF6EF7635400584028C8388048B53
:101C300048F6FF752C404FF6FF452C400D884FF6B7
:101C4000FF7606EA05252C434FF6DF752A400D89FD
:101C500006EA05152A434D8806EA05152A43154D5F
:101C6000A84202D0144DA8421DD14FF67F752A40DC
:101C70004D894FF6FF7606EA05152A434FF6BF75E4
:101C80002A408D8806EA05152A434FF6FF352B407A
:101C90004FF2FF752B408D8906EA85052B43CD89D0
:101CA00006EA85052B4383800483CD88058702845B
:101CB00070BD0000002C0140003401400A460021A4
:101CC000018B4FF2FF7319404FF6FF7303EA0223B3
:101CD000194301837047000070B5002400220023DF
:101CE000058C4FF6FF6635400584028C8388848B13
:101CF0004FF68F752C404FF6FC752C400D882C4309
:101D00004FF6FF552A400D894FF6FF7606EA052566
:101D10002A434D8806EA05252A43154DA84202D0DC
:101D2000144DA8421DD14FF2FF752A404D894FF640
:101D3000FF7606EA05252A434FF6FF352A408D88AF
:101D400006EA05252A434EF6FF752B404DF6FF7532
:101D50002B408D8906EA05152B43CD8906EA05152A
:101D60002B4383808483CD888587028470BD0000E7
:101D7000002C0140003401400A460021818B4FF6BF
:101D8000F7731940114381837047000070B500223A
:101D900000230024058C4EF6FF7635400584038C25
:101DA0008488828B48F6FF752A404FF6FF452A400B
:101DB0000D884FF6FF7606EA05252A434DF6FF7596
:101DC0002B400D8906EA05352B434D8806EA05357B
:101DD0002B430B4DA84202D00A4DA84208D14BF626
:101DE000FF752C408D894FF6FF7606EA85152C434A
:101DF00084808283CD88A0F84050038470BD0000A9
:101E0000002C0140003401400A460021818B4FF232
:101E1000FF7319404FF6FF7303EA022319438183CE
:101E200070470000002202881D4B98420ED01D4BC7
:101E300098420BD0B0F1804F08D01B4B984205D090
:101E40001A4B984202D01A4B984204D14FF68F7326
:101E50001A404B881A43174B984207D0164B9842AA
:101E600004D04FF6FF431A40CB881A4302808B8878
:101E700083850B8803850A4B98420BD0094B984207
:101E800008D00E4B984205D00D4B984202D00D4B16
:101E9000984201D10B7A03860123838270470000A8
:101EA000002C0140003401400004004000080040C4
:101EB000000C0040001000400014004000400140B1
:101EC000004401400048014010B540F22551274828
:101ED00000F088F8012848D1244800F03FF9044672
:101EE0002146224800F03FF9A4F1310006281CD217
:101EF000DFE800F003070B0F131701201C490860EF
:101F000013E001201B4908600FE001201A49086016
:101F10000BE001201949086007E00120184908601A
:101F200003E001201749086000BF00BF0A2C08D059
:101F3000154802680068401C134B1860134884540D
:101F40000EE00021104802680068401C0E4B18602B
:101F50000E48815400201946086001200C49086091
:101F600040F22551014800F015F810BD003801403D
:101F700004000020080000200C00002010000020B9
:101F800014000020180000201C00002090000020F9
:101F90000000002010B50022002340F66A14A14280
:101FA00000D100BF0A1201249440A3B2DC43048094
:101FB00010BD21B1828942F40052828104E08289FD
:101FC0004DF6FF731A408281704702460020B1F53A
:101FD000007F00D100BF13880B400BB1012000E04F
:101FE0000020704770B50246002400230025002021
:101FF00040F66A16B14200D100BFC1F3421501F0AC
:102000001F03012606FA03F3012D02D196893340FE
:1020100006E0022D02D1168A334001E0968A334051
:102020000C12012606FA04F41688344013B10CB1E0
:10203000012000E0002070BDF0B50346002400261A
:102040000025002040F66A17B94200D100BF1846AB
:10205000C1F3421401F01F06012707FA06F5012C0F
:1020600001D10C3004E0022C01D1103000E014301A
:102070001AB107682F43076002E00768AF430760A3
:10208000F0BD00002DE9F04786B005460E4600245D
:10209000A24600BFA1460027B08900B100BF2F466D
:1020A0002C8A4CF6FF700440F08804432C82AC89E3
:1020B0004EF6F3100440B088318908437189084313
:1020C0000443AC81AC8A4FF6FF400440B08904431E
:1020D000AC8201A8FFF714FC1F48874202D1DDF84B
:1020E00010A001E0DDF80CA0A88900F4004040B188
:1020F0000AEBCA0000EB0A1031684900B0FBF1F8A6
:1021000007E00AEBCA0000EB0A1031688900B0FB57
:10211000F1F86420B8FBF0F004012009642101FB10
:102120001089A88900F4004040B1322000EBC900BA
:10213000B0FBF1F000F00700044308E0322000EBB0
:1021400009106421B0FBF1F000F00F0004432C8172
:1021500006B0BDE8F08700000038014001468888DD
:10216000C0F308007047C1F308028280704749003D
:1021700050EAC12018BF04204A0D18BF40F00100EA
:1021800040F2FF72B2EB515F08BF40F0020001283D
:1021900008BF0520704730380A2801D20120704757
:1021A00000207047A0B00124FFF79AF9FFF7B0F9BB
:1021B000FFF7D0F94FF4E13000F074F846E024481E
:1021C000FFF736F92249886900F0F8F805462A46F3
:1021D0000B4620A16846FEF703F8684600F0C6F8F3
:1021E0002CB300202049C8772049C87746201E49D3
:1021F00088771E4988771C48FFF71EFB1B48FFF7AE
:102200001BFB41F2883000F03FF801201649C877E7
:1022100064208877154988771348FFF70DFB13482A
:10222000FFF70AFB41F2883000F02EF80024104836
:10223000006810480068104800681048006810489E
:102240000068104800680A2000F01EF8B7E7000098
:102250007400002044697374616E63653A20252E12
:10226000326620636D0D0A00340000205400002007
:1022700004000020080000200C00002010000020B6
:102280001400002018000020002107E0002200E0D8
:10229000521C41F672739A42FADB491C8142F5DB0B
:1022A0007047000010B586B00446012144F20400D6
:1022B000FFF716FB4FF40070ADF8140001208DF805
:1022C000160018208DF8170005A91E48FEF77EFF9E
:1022D0004FF48060ADF8140001208DF81600042042
:1022E0008DF8170005A91748FEF770FF019400202C
:1022F000ADF80800ADF80A00ADF80C00ADF810001C
:102300000C20ADF80E0001A90F48FFF7BBFE01221B
:1023100040F225510C48FFF78FFE25208DF8000074
:1023200001208DF8030000208DF801008DF80200D7
:102330006846FFF78DFA01210348FFF73AFE06B021
:1023400010BD0000000801400038014010B50446EF
:1023500021460548FFF707FF00BF80210248FFF72D
:1023600034FE0028F9D010BD0038014010B50446F5
:1023700003E02078FFF7EAFF641C20780028F8D1FA
:1023800010BD000010B500290AD00878002807D039
:1023900005487844FEF718FB002801D0002010BD46
:1023A0000248784410BD0000BE040000B6040000DE
:1023B0000808A0F500114FEA3101704743004FEAC9
:1023C000D30C4FEA3C0C43401FBF40070CF1605157
:1023D00013F0FE4F70471CF0006F03D100200CF08B
:1023E000004170470CF0004343EA507010B540EADA
:1023F000CC0000F086F900BF000000924FEA000117
:10240000FFF7D6BF4FF000414FF00000A1F50021CB
:10241000704700004FF47F0C1CEAD0121EBF1CEA6C
:10242000D11392EA0C0F93EA0C0F00F0858090EA2A
:10243000010F48BF42F4807240F4000C41F40000E8
:102440002CF07F4120F07F4000B58142A2EB0302D7
:102450000FF2081CACEB504EC0F100009EF800E0FB
:102460004FEA4E0E00FB0EFC38BF49004FEA2C1C11
:1024700002F5FA020CFB0EF34FEACE1E4FEA112CC6
:102480004FEAC1210EEB635E42EB22420EFB0CFCD5
:102490004FEA1C5300FB03114FEA112C4FEA0131A4
:1024A0000EFB0CFC4FEADC4C00FB0C11C14228BFB8
:1024B00009184CEB03335DF804EB10EB410143EBDF
:1024C000C250B2F57C0F38BF704729D512F0F00F1B
:1024D0001CBF00F1C04000F00040704700818283C3
:1024E0008485868788898B8C8D8E8F919293959623
:1024F00097999A9C9D9FA0A2A3A5A7A8AAACAEB0AD
:10250000B2B3B5B7B9BCBEC0C2C5C7C9CCCED1D4B1
:10251000D7D9DCDFE2E6E9ECF0F3F7FAFE000000E1
:102520004FEA400C0CF1807CBCF17E4F28BF704715
:10253000B0F1C04000F02BB990EA010F0CEAD113C2
:1025400048BF42F48072624538BF634507D213F436
:102550007F0F16D080EA010000F00040704710B5F0
:1025600000F0CFF8097EFC3E00F005B880EA0100DB
:1025700000F00040704780EA010000F0004000F0E9
:1025800006B912F47F0F04BF0248704780EA0100C9
:1025900000F0FDB80000C07FC10DD1F19E0206DB46
:1025A0004FEA002343F0004323FA02F07047004251
:1025B00007D54FEA4001B1F1FE4F02D24FF00000C3
:1025C000704710B500F09DF84992248000207047B4
:1025D0006FEA200070470000B0FA80F310FA03F2AF
:1025E000C3F19D030AD0D90501EB1220530638BF71
:1025F000704700F1010008BF20F0010070470000A3
:102600004FF47F0C1CEAD0121EBF1CEAD11392EAD1
:102610000C0F93EA0C0F00F0478090EA010F48BFBF
:1026200042F480724FF0004C4CEA00204CEA012149
:1026300002EB0302A0FB0113A2F50002002918BF60
:1026400043F001035B0028BF4FEA330342EB224211
:102650005FEA132C4CEBC2502EBFBCEB436FB2F5BC
:102660007C0F70474FEA036CBCF1004F08BF20F0AD
:102670000100B2F57C0F38BF70470BD582F0FF0226
:1026800012F5803FC8BF704700F1C040D8BF00F0CE
:102690000040704700F5000C5FEA4C0C48BF7047E3
:1026A000B0F1C04000F073B890EA010F0CEAD1130A
:1026B00048BF42F48072624538BF634504D280EA65
:1026C000010000F00040704710B500F01AF800BF9C
:1026D0008900013E00F007B800F009B85FEA410C3C
:1026E0005FEA1C6C08D080EA010000F050B85FEA95
:1026F000400C5FEA1C6CF6D14FF00040A0F5800062
:1027000070470EF1020E2EF0030E5EF8044B2442C9
:1027100004D44FEA4102B2F17F4F11D84FEA40038F
:10272000B3F17F4F0CD80ED14FEAD07CB2F17F4F7E
:102730000CEB4C0C0CF1020C08BF4CEBD17C04E010
:102740004FF0080C01E04FEAD17C0CEB4C0324FA6B
:1027500003F404F00704B4F1040C06D20EEB840C6D
:10276000BDE810404CF0010C6047DFE80CF00708B2
:1027700002024FF00040A0F5800010BD0846420064
:1027800018BFD2F1807288BF00F0004010BDFF2159
:1027900041EAD050C0057047FDF797BE02400000E7
:1027A000000000A00000000005400000000000C87C
:1027B000000000000C4000000000409C00000000F1
:1027C000194000000020BCBE0000000034400000A2
:1027D000BFC91B8E00000004B5400000504BCFD095
:1027E0006607E2CF010000006C4100003E8251AA62
:1027F000DFEEA73401000000D9420000DCB5A0E202
:102800003A301F97FFFFFFFFB4450000FD25A0C829
:10281000E9A3C14FFFFFFFFFFF3F00000000008062
:1028200000000000FF3F00000000008000000000EA
:102830006C28000800000020340000002801000877
:10284000A0280008340000207C0700004401000894
:102850001C00000043000000F8FFFFFF0C00000018
:102860000E0000000F0000002E000000000000001D
:102870000000000000000000000000000000000058
:102880000000000000000000000000000000000048
:1028900001020304010203040607080902040608F2
:04000005080000ED02
:00000001FF
