:020000040800F2
:100000005005002001010008090100080B0100084B
:100010000D0100080F010008110100080000000098
:1000200000000000000000000000000013010008B4
:100030001501000800000000170100081901000860
:100040001B0100081B0100081B0100081B01000820
:100050001B0100081B0100081B0100081B01000810
:100060001B0100081B0100081B0100081B01000800
:100070001B0100081B0100081B0100081B010008F0
:100080001B0100081B0100081B0100081B010008E0
:100090001B0100081B0100081B0100081B010008D0
:1000A0001B0100081B0100081B0100081B010008C0
:1000B0001B0100081B0100081B0100081B010008B0
:1000C0001B0100081B0100081B0100081B010008A0
:1000D0001B010008451500081B0100081B01000852
:1000E0001B0100081B0100081B010008DFF80CD0F1
:1000F00000F0FEFA004800472121000850050020CA
:100100000648804706480047FEE7FEE7FEE7FEE7B1
:10011000FEE7FEE7FEE7FEE7FEE7FEE73511000833
:10012000ED00000880EA010210B502F00043400033
:1001300022D04A001FD0010E01EB1261C0F356001D
:10014000C2F3560240F4000042F40002A0FB022079
:1001500000047F39140400D0401C50EA124001D43E
:100160004000491EC2B20C0604EBD010401C4008EF
:10017000802A02D003E0002010BD20F001000029F9
:1001800000DA0020184310BD30B480EA010202F00A
:10019000004530F0004221F0004013D090B1C30D73
:1001A000D40DC2F31601C0F31600E41A41F40001A5
:1001B00040F400027D34914201D3641C00E0490008
:1001C000002C02DA30BC002070474FF400000023FE
:1001D000914201D3891A034340084FEA4101F7D104
:1001E00051B1914202D14FF0004105E002D24FF0EF
:1001F000010101E06FF0010103EBC450284430BC61
:1002000000F087B896230022114600F08BB820F04A
:100210000040C10DC0F3160040F400007F2901DA50
:1002200000207047962903DCC1F19601C840704751
:1002300096398840704700F0004230F000400AD004
:10024000C10D01F56071C0F3160042EA0151C20808
:10025000400711437047002001467047002801DB2A
:10026000C0F10040002901DBC1F10041814270472B
:10027000002801DBC0F10040002901DBC1F1004191
:100280008842704730B50B460146002020220124E9
:1002900009E021FA02F59D4205D303FA02F5491B54
:1002A00004FA02F52844151EA2F10102F1DC30BD6A
:1002B0002DE9F05F0546002092469B46884606469B
:1002C000814640241BE0284641464746224600F02E
:1002D00030FA53465A46C01A914110D31146184677
:1002E000224600F017FA2D1A67EB01084F46224606
:1002F0000120002100F00EFA17EB00094E41201EEC
:10030000A4F10104DFDC484631462A464346BDE8F5
:10031000F09F0029A8BF7047401C490008BF20F08B
:100320000100704710B4B0FA80FC00FA0CF050EAFB
:10033000010404BF10BC704749B1CCF1200421FA7C
:1003400004F411FA0CF118BF012121430843A3EB77
:100350000C01CB1D4FEA00614FEA102042BF002084
:1003600010BC704700EBC35010440029A4BF10BC60
:100370007047401C490008BF20F0010010BC7047C6
:100380002DE9FE4F804681EA0300C00F0C46009025
:1003900021F0004123F00045B8EB0200A94105D24D
:1003A0004046214690461C460B46024623F000403C
:1003B000104347D0270DC7F30A00C3F30A51029038
:1003C000401A019040286BDAC3F3130040F4801BFD
:1003D0000098924620B10023D2EB030A63EB0B0B8B
:1003E00001985946C0F14002504600F093F9064684
:1003F0000D4650465946019A00F0ABF910EB080043
:100400006141002487EA115284EAE7731A4340D01D
:10041000009A62B3019A012A4FEA075215DC001BC9
:1004200061EB02014FF0004202EA0752CDE90042BF
:10043000001C41F5801132462B4600F0ABF903B0A9
:10044000BDE8F08F40462146F9E7001B61EB020151
:10045000001C41F5801300185B412018A2F500171D
:1004600047EB030140EAD570B6196D4111E06D0804
:100470004FEA360645EAC0754FEA0752001B61EBAA
:100480000201001C41F5801149084FEA30000019B3
:10049000514132462B4603B0BDE8F04F00F06BB936
:1004A0000098012240000023D0EB020263EBE073CE
:1004B000009821464FEAE074B8EB000061EB0401BC
:1004C000E9E783F000435BE781F0004158E72DE95D
:1004D000FE4F81EA030404F0004421F0004100943F
:1004E0004FF0000B23F0004350EA01045ED052EAC3
:1004F00003045BD0C3F30A54C1F30A552C44A4F29D
:10050000F3340194A0FB0254C1F3130141F48011B0
:10051000C3F3130343F4801301FB024400FB034EB7
:10052000840A970A44EA815447EA8357A4FB076880
:1005300002958D0A05FB07854FEA932C04FB0C54AA
:100540002705029D4FEA065847EA1637B5EB08051E
:100550006EEB070C870E920E47EA811742EA831270
:10056000A7FB0201B6EB0B0164EB00042B0D43EA81
:100570000C335E1844EB1C50DA465146E7FB02018F
:10058000C5F313044FEA0B3343EA14534FEA043222
:10059000019C43EA0603A4F10C040294009CCDE9FB
:1005A00000B400F0F7F803B0BDE8F08F002001467A
:1005B000F9E72DE9F04D81EA030404F0004B21F046
:1005C000004514464FF0000A23F0004150EA0502AE
:1005D00020D054EA01021DD0C5F30A570246C5F3E4
:1005E0001303C1F31300C1F30A5640F4801543F41A
:1005F0008013A7EB0608101BD64608F2FD3873EBF4
:10060000050002D308F1010801E092185B41B8F13E
:10061000000F03DA00200146BDE8F08D00204FF402
:100620008011064684460EE0171B73EB050705D3C1
:10063000121B63EB050306434CEA010C49084FEA21
:10064000300092185B4150EA0107EDD152EA0300F5
:1006500012D082EA040083EA0501084305D0101B8A
:10066000AB4106D20122002306E000224FF00043F6
:1006700002E06FF0010253101AEB06004CEB085138
:1006800010EB0A0041EB0B01BDE8F04D00F073B830
:10069000C1F30A52C1F3130140F2FF3341F4801158
:1006A0009A4202DA00200146704740F233439A42F0
:1006B000A2F2334202DC524200F03BB800F02AB80A
:1006C00030B5041E71F1000404DB4FF000444042D9
:1006D00064EB0101141E73F1000405DB1C464FF0AE
:1006E0000043524263EB0403994208BF904230BD7D
:1006F000064C074D06E0E06840F0010394E807006F
:1007000098471034AC42F6D3FFF7F4FCC425000838
:10071000E4250008202A04DB203A00FA02F1002038
:1007200070479140C2F1200320FA03F3194390402F
:100730007047202A04DB203A21FA02F0002170479A
:1007400021FA02F3D040C2F1200291400843194639
:100750007047202A06DBCB17203A41FA02F043EA21
:10076000E07306E041FA02F3D040C2F1200291406A
:1007700008431946704710B5141E73F1000408DAD7
:10078000401C41F1000192185B411A4301D120F055
:10079000010010BD2DE9F04D92469B4611B1B1FA12
:1007A00081F202E0B0FA80F220329046FFF7B2FF09
:1007B00004460F4640EA0A0041EA0B0153465A46F6
:1007C000084313D0114653EA010019D0C8F1400282
:1007D0005046FFF7AEFF05460E4650465946424684
:1007E000FFF798FF084305D0012004E02046394672
:1007F000BDE8F08D0020054346EAE0762C43374300
:100800000A986305E40AA0EB08000022FD0A44EA06
:1008100047540A3002D500200146E9E701051019C6
:100820006941DDE9084500196941BDE8F04DA2E7DD
:100830002DE9F04102460025002600200023002477
:10084000002791F803C00CF00F0591F803C00CF0DD
:10085000100CBCF1000F03D091F802C04CEA050562
:1008600091F800C0BCF1000F31D0146800202BE0DB
:100870004FF0010C0CFA00F3B1F800C00CEA0306CB
:100880009E4220D183004FF00F0C0CFA03F7BC43BB
:1008900005FA03FC4CEA040491F803C0BCF1280FEC
:1008A00006D14FF0010C0CFA00FCC2F814C00AE0AB
:1008B00091F803C0BCF1480F05D14FF0010C0CFAC0
:1008C00000FCC2F810C0401C0828D1D31460B1F855
:1008D00000C0BCF1FF0F34DD546800202EE000F1B1
:1008E000080C4FF0010808FA0CF3B1F800C00CEA4C
:1008F00003069E4221D183004FF00F0C0CFA03F740
:10090000BC4305FA03FC4CEA040491F803C0BCF1B3
:10091000280F05D100F1080C08FA0CF8C2F8148071
:1009200091F803C0BCF1480F07D100F1080C4FF05B
:10093000010808FA0CF8C2F81080401C0828CED331
:100940005460BDE8F0810246002093680B400BB173
:10095000012000E00020704741617047016170474D
:100960001FB5044645492068884204D1012104206E
:1009700000F0F2FA10E042492068884204D10121D7
:10098000082000F0E9FA07E03E492068884203D1D8
:100990000121102000F0E0FA3849A068884204D113
:1009A0000121042000F0D8FA10E03549A0688842FF
:1009B00004D10121082000F0CFFA07E03149A068F6
:1009C000884203D10121102000F0C6FA2E49206987
:1009D000884204D10121C01400F0BEFA19E0206958
:1009E000B0F1804F04D10121084600F0A5FA10E0D3
:1009F00026492069884204D10121022000F09CFA96
:100A000007E023492069884203D10121042000F036
:100A100093FAA088ADF80C0010208DF80F00032089
:100A20008DF80E0003A92068FFF702FFA089ADF83A
:100A30000C0048208DF80F0003A9A068FFF7F8FE0E
:100A4000A1882068FFF788FF4FF6FF70ADF804001B
:100A50004720ADF800000020ADF80600ADF8020018
:100A60006946206900F01CFD0121206900F09EFB11
:100A700047F2305060610020A0611FBD00080140B6
:100A8000000C014000100140002C01400004004017
:100A9000000800402DE9F0470446A1882068FFF7D0
:100AA0005DFF4FF0000802E000BF08F10108B8F553
:100AB000347FF9D3A1882068FFF74EFF002511E0AD
:100AC00028466D1C6169884204D91C48A061012038
:100AD000BDE8F08700BF2069808C0128FBDB002087
:100AE00021698884A189A068FFF72DFF0028E7D03D
:100AF0002069858C09E02069808C401B61698842EF
:100B000003D90E48A0610120E2E7A189A068FFF7A0
:100B10001AFF0128EFD02069868C771B3846FFF733
:100B200071FB82460649FFF7FDFA81464FF080418E
:100B3000FFF72AFBA0610020CAE70000000080BF89
:100B400021930C3D10B54FF08040084908610848DA
:100B500088604FF480408881054808604FF4004069
:100B600088800846FFF7FCFE10BD000074000020DE
:100B7000000C014010B50C480C490860002088802A
:100B80000B488860402088810A480861402088829C
:100B900008488861802088830020C87746208877AD
:100BA000084600F02BF810BD00040040340000207F
:100BB00000080140000C014010B50C480C490860C9
:100BC000042088800B488860802088810A4808615A
:100BD0008015888208488861401588830020C8777E
:100BE00046208877084600F009F810BD0004004050
:100BF0005400002000080140000C014010B588B0EE
:100C0000044679492069884204D10121042000F07A
:100C1000A3F910E075492069884204D10121082018
:100C200000F09AF907E072492069884203D1012156
:100C3000102000F091F96C49A069884204D101218B
:100C4000042000F089F910E06849A069884204D1C5
:100C50000121082000F080F907E06549A069884279
:100C600003D10121102000F077F95F49A068884284
:100C700004D10121042000F06FF910E05B49A06865
:100C8000884204D10121082000F066F907E05849A4
:100C9000A068884203D10121102000F05DF9554978
:100CA0002068884204D10121C01400F055F919E0F0
:100CB0002068B0F1804F04D10121084600F03CF9D2
:100CC00010E04D492068884204D10121022000F043
:100CD00033F907E049492068884203D10121042003
:100CE00000F02AF9A08AA18B0843ADF81C0010205F
:100CF0008DF81F0003208DF81E0007A92069FFF75B
:100D000097FDA089ADF81C0018208DF81F00032066
:100D10008DF81E0007A9A068FFF78AFDA18A206947
:100D2000FFF71AFEA18BA069FFF716FE40F2E7302D
:100D3000ADF814004720ADF810000020ADF8160003
:100D4000ADF8120004A9206800F0AAFB6020ADF8FD
:100D500000000120ADF802000020ADF80600ADF85B
:100D60000800A08840B96946206800F03BFA0821D5
:100D7000206800F083FA22E0A088042808D16946A0
:100D8000206800F085FA0821206800F0D3FA16E008
:100D9000A088082808D16946206800F0D9FA0821FF
:100DA000206800F025FB0AE0A0880C2807D16946DE
:100DB000206800F027FB0821206800F061FB01217A
:100DC000206800F0E7F90121206800F0EFF90949F7
:100DD0002068884203D10121206800F0F3F9002047
:100DE000A077E07708B010BD00080140000C01407A
:100DF00000100140002C01400004004000080040A9
:100E000070B504460D46E57745B9A18A2069FFF71C
:100E1000A5FDA18BA069FFF79FFD07E0A18A2069CE
:100E2000FFF79AFDA18BA069FFF798FD70BD000048
:100E30002DE9F04704460E46642E00DD6426A677B1
:100E40003046FFF7DFF981461249FFF79DF98046EA
:100E50001149FFF767F90746FFF7D9F985B2A0886E
:100E600030B1042807D0082808D00C280DD108E09C
:100E7000206885860AE02068058707E02068858766
:100E800004E02068A0F8405000E000BF00BFBDE8CB
:100E9000F08700000000C84200C0794410B5044645
:100EA000E17F2046FFF7ACFFA17F2046FFF7C0FFA0
:100EB00010BD10B50446A18A2069FFF74DFDA18B36
:100EC000A069FFF749FD10BD70B5002100230F2276
:100ED000C47804B3154C246804F4E064C4F5E064F9
:100EE000210AC1F10403CA40447804FA03F184786A
:100EF0001440214309010E4C0678A155047804F0F2
:100F00001F050124AC4005786D11AD0005F1E02509
:100F1000C5F8004109E0047804F01F050124AC4045
:100F2000044D0678761145F8264070BD0CED00E0C2
:100F300000E400E080E100E029B1064AD269024302
:100F4000044BDA6104E0034AD2698243014BDA615F
:100F5000704700000010024029B1064A926902431E
:100F6000044B9A6104E0034A92698243014B9A61FF
:100F7000704700000010024030B50021002200241C
:100F800000232D4D6D6805F00C0121B1042905D019
:100F9000082923D105E0294D056022E0274D056091
:100FA0001FE0254D6D6805F47012234D6D6805F442
:100FB0008034022505EB92421CB9214D5543056052
:100FC0000BE01D4D6D6805F400351DB11C4D5543FA
:100FD000056002E0194D5543056002E0174D0560BC
:100FE00000BF00BF144D6D6805F0F0010909154DF3
:100FF0006B5C0568DD4045600F4D6D6805F4E06190
:10100000090A104D6B5C4568DD4085600A4D6D68CE
:1010100005F46051C90A0B4D6B5C4568DD40C56045
:10102000054D6D6805F44041890B074D6B5CC56843
:10103000B5FBF3F5056130BD0010024000127A00E7
:1010400000093D00200000203000002010B500F015
:1010500001F810BD0CB500200190009033480068E5
:1010600040F480303149086000BF3048006800F427
:10107000003000900198401C0190009818B9019828
:10108000B0F5A06FF1D12948006800F4003010B12C
:101090000120009001E0002000900098012843D139
:1010A0002348006840F010002149086008460068A5
:1010B00020F0030008600846006840F00200086065
:1010C0001A48406819494860084640684860084620
:1010D000406840F4806048600846406820F47C1016
:1010E00048600846406840F4E810486008460068D8
:1010F00040F08070086000BF0C48006800F000708D
:101100000028F9D00948406820F0030007494860EA
:101110000846406840F00200486000BF034840684D
:1011200000F00C000828F9D10CBD000000100240AE
:101130000020024010B51348006840F0010011493A
:10114000086008464068104908400E494860084653
:1011500000680E4908400B4908600846006820F402
:10116000802008600846406820F4FE0048604FF484
:101170001F008860FFF76AFF4FF0006004490860B5
:1011800010BD0000001002400000FFF8FFFFF6FE57
:1011900008ED00E021B1028842F08002028004E004
:1011A00002884FF67F731A400280704721B102888F
:1011B00042F00102028004E002884FF6FE731A40FA
:1011C0000280704731B1B0F8442042F40042A0F8E8
:1011D000442005E0B0F84420C2F30E02A0F84420F9
:1011E0007047000070B5002400220023058C4FF6E4
:1011F000FE7635400584028C8388048B4FF68F750C
:101200002C40B51E2C400D882C43751E2A400D899C
:101210002A434D882A43144DA8420BD0134DA842AF
:1012200008D0134DA84205D0124DA84202D0124D4D
:10123000A84213D14FF6F7752A404D892A434FF63D
:10124000FB752A408D882A434FF6FF652B404FF6E9
:10125000FF552B408D892B43CD892B4383800483FD
:10126000CD888586028470BD002C01400034014089
:101270000040014000440140004801400A4600216E
:10128000018B4FF6F773194011430183704700003B
:1012900070B5002400220023058C4FF6EF76354010
:1012A0000584028C8388048B48F6FF752C404FF62A
:1012B000FF452C400D884FF6FF7606EA05252C43A6
:1012C0004FF6DF752A400D8906EA05152A434D8839
:1012D00006EA05152A43154DA84202D0144DA8422E
:1012E0001DD14FF67F752A404D894FF6FF7606EAED
:1012F00005152A434FF6BF752A408D8806EA051565
:101300002A434FF6FF352B404FF2FF752B408D8956
:1013100006EA85052B43CD8906EA85052B438380A4
:101320000483CD880587028470BD0000002C014035
:10133000003401400A460021018B4FF2FF7319402F
:101340004FF6FF7303EA022319430183704700003D
:1013500070B5002400220023058C4FF6FF6635404F
:101360000584028C8388848B4FF68F752C404FF652
:10137000FC752C400D882C434FF6FF552A400D89F3
:101380004FF6FF7606EA05252A434D8806EA05252D
:101390002A43154DA84202D0144DA8421DD14FF248
:1013A000FF752A404D894FF6FF7606EA05252A4348
:1013B0004FF6FF352A408D8806EA05252A434EF66A
:1013C000FF752B404DF6FF752B408D8906EA0515FC
:1013D0002B43CD8906EA05152B4383808483CD8872
:1013E0008587028470BD0000002C0140003401405C
:1013F0000A460021818B4FF6F77319401143818310
:101400007047000070B5002200230024058C4EF6C2
:10141000FF7635400584038C8488828B48F6FF75FF
:101420002A404FF6FF452A400D884FF6FF7606EA20
:1014300005252A434DF6FF752B400D8906EA053533
:101440002B434D8806EA05352B430B4DA84202D0AD
:101450000A4DA84208D14BF6FF752C408D894FF6F6
:10146000FF7606EA85152C4384808283CD88A0F818
:101470004050038470BD0000002C01400034014046
:101480000A460021818B4FF2FF7319404FF6FF731C
:1014900003EA022319438183704781867047000065
:1014A000002202881D4B98420ED01D4B98420BD053
:1014B000B0F1804F08D01B4B984205D01A4B984290
:1014C00002D01A4B984204D14FF68F731A404B88C2
:1014D0001A43174B984207D0164B984204D04FF648
:1014E000FF431A40CB881A4302808B8883850B8880
:1014F00003850A4B98420BD0094B984208D00E4BFB
:10150000984205D00D4B984202D00D4B984201D124
:101510000B7A03860123838270470000002C014070
:10152000003401400004004000080040000C00406E
:101530000010004000140040004001400044014001
:101540000048014010B540F22551284800F08AF8C3
:10155000012849D1254800F041F904462146234895
:1015600000F041F9A4F1300007281DD2DFE800F0B7
:1015700004080C10141C180001201D49086013E019
:1015800001201C4908600FE001201B4908600BE0A6
:1015900001201A49086007E001201949086003E0AA
:1015A00001201849086000BF00BF0A2C08D0164867
:1015B00002680068401C144B1860144884540EE004
:1015C0000021114802680068401C0F4B18600F484A
:1015D000815400201946086001200D49086040F23E
:1015E0002551024800F016F810BD000000380140F7
:1015F00004000020080000200C0000201000002043
:1016000014000020180000201C0000209000002082
:101610000000002010B50022002340F66A14A14209
:1016200000D100BF0A1201249440A3B2DC4304801D
:1016300010BD21B1828942F40052828104E0828986
:101640004DF6FF731A408281704702460020B1F5C3
:10165000007F00D100BF13880B400BB1012000E0D8
:101660000020704770B502460024002300250020AA
:1016700040F66A16B14200D100BFC1F3421501F035
:101680001F03012606FA03F3012D02D19689334088
:1016900006E0022D02D1168A334001E0968A3340DB
:1016A0000C12012606FA04F41688344013B10CB16A
:1016B000012000E0002070BDF0B5034600240026A4
:1016C0000025002040F66A17B94200D100BF184635
:1016D000C1F3421401F01F06012707FA06F5012C99
:1016E00001D10C3004E0022C01D1103000E01430A4
:1016F0001AB107682F43076002E00768AF4307602D
:10170000F0BD00002DE9F04786B005460E460024E6
:10171000A24600BFA1460027B08900B100BF2F46F6
:101720002C8A4CF6FF700440F08804432C82AC896C
:101730004EF6F3100440B08831890843718908439C
:101740000443AC81AC8A4FF6FF400440B0890443A7
:10175000AC8201A8FFF710FC1F48874202D1DDF8D8
:1017600010A001E0DDF80CA0A88900F4004040B111
:101770000AEBCA0000EB0A1031684900B0FBF1F82F
:1017800007E00AEBCA0000EB0A1031688900B0FBE1
:10179000F1F86420B8FBF0F004012009642101FB9A
:1017A0001089A88900F4004040B1322000EBC90044
:1017B000B0FBF1F000F00700044308E0322000EB3A
:1017C00009106421B0FBF1F000F00F0004432C81FC
:1017D00006B0BDE8F0870000003801400146888867
:1017E000C0F308007047C1F3080282807047000010
:1017F0000FB4084B10B504A902AA039800F0DEF854
:10180000044602A9002000F070FC204610BC5DF8E0
:1018100014FB0000EB20000802E008C8121F08C1FA
:10182000002AFAD170477047002001E001C1121F61
:10183000002AFBD1704700002DE9FF5F82B0002134
:10184000DDE90430020DDDF840B0034318D044F662
:101850001050A2F2FF3242431514119801281FD0F4
:10186000A5EB0B00401C5FEA000A4FF000064E4F4C
:10187000DFF83891B046504615D5CAF1000413E0A0
:10188000119801244AA3012801D16FEA0B010298A3
:10189000119AC0E90031C0E9024206B0BDE8F09FEC
:1018A000CBF10000DFE704460021404A491842EB33
:1018B0000450CDE9001012E0E00707D032463B4665
:1018C00040464946FEF703FE8046894632463B467F
:1018D00010461946FEF7FBFD06460F466410002C25
:1018E000EAD1DDE90401DDE90023BAF1000F06DAEF
:1018F000FEF7EDFD42464B46FEF7E9FD05E0FEF73B
:1019000058FE42464B46FEF754FE04460E46002261
:10191000284BFEF7D5FE03D84FF0FF30014607E015
:101920000022254B20463146FEF72AFDFEF7B0FE89
:10193000102409E0002C0ADB0A220023FEF7B8FC81
:10194000039B30321A55641E50EA0102F2D1641C26
:10195000039AC4F111031444119A012A03D00122FD
:1019600008430DD10AE0084304D000204FF0110BCA
:10197000119072E7A3EB0B056D1E0DE05B4504DDD6
:101980004FF0000205F1010504E003DA4FF0000218
:10199000A5F10105002AECD002981199C0E90231A5
:1019A000C0E9004579E70000000014400000F03F66
:1019B000300000000000F0430000E03F2DE9FF4F41
:1019C00095B09B468946064600250FE2252877D12B
:1019D00000242746F84A0121059400E0044316F844
:1019E000013F203B01FA03F01042F7D130782A285A
:1019F00011D06FF02F033078A0F13002092A16D8E9
:101A0000059A44F0020402EB820203EB4202104406
:101A1000761C0590EFE759F8042B0592002A03DAAB
:101A2000504244F40054059044F00204761C30788F
:101A30002E2816D116F8010F44F004042A280DD0E0
:101A40006FF02F023078A0F13003092B09D807EB93
:101A5000870302EB4303C718761CF3E759F8047BAE
:101A6000761C30786C280FD006DC4C2817D06828FC
:101A70000DD06A2814D104E0742810D07A280FD130
:101A80000DE044F400140AE044F4801401E044F44E
:101A900040147278824202D104F58014761C761CC0
:101AA000307866280BD013DC582877D009DC002862
:101AB00075D04528F6D04628F4D047281AD19DE1A4
:101AC00018E0632835D0642879D0652812D195E1D3
:101AD000702873D008DC6728F1D069286FD06E2891
:101AE0000DD06F2806D1B5E073282CD0752875D09D
:101AF000782874D05A46179990476D1C75E1C4F345
:101B00000250022809D003280DD0D9F8001004286B
:101B10000DD00D6009F1040967E1D9F80010EA174A
:101B2000C1E90052F6E7D9F800100D80F2E70D7018
:101B3000F0E719F8041B8DF8001000208DF8010063
:101B4000EA46012003E059F804AB4FF0FF3061078B
:101B50004FF0000102D40DE008F101018846B942BE
:101B60000FDA8045F8DB1AF808100029F4D108E0F4
:101B700008F1010188468142FADB1AF808100029B1
:101B8000F6D105985B46A0EB080721463846179A20
:101B900000F094FA284400EB080507E04DE029E145
:101BA0000DE01AF8010B5A4617999047B8F1010851
:101BB000F7D25B4621463846179A13E142E00A22E3
:101BC0000092C4F302524FF0000A022A08D059F8DA
:101BD00004CB032A4FEAEC710AD00DE029E02AE099
:101BE00009F1070121F00702F2E802C1914609E07C
:101BF0000FFA8CFC4FEAEC71042A03D14FFA8CFCEB
:101C00004FEAEC71002907DA0A460021DCF1000CEA
:101C100061EB02012D2202E0220504D52B228DF872
:101C20000420012203E0E20701D02022F7E79046DA
:101C300059E00A2102E010220DE010214FF0000AC5
:101C400000910BE010224FF0000A44F00404082732
:101C5000009203E008224FF0000A0092C4F30252FF
:101C6000022A05D059F804CB0021032A08D009E044
:101C700009F1070121F00702F2E802C1914605E0EF
:101C80001FFA8CFC042A01D10CF0FF0C4FF0000865
:101C9000220728D5702806D0009B83F0100353EA52
:101CA0000A0305D00EE040228DF80420012208E04E
:101CB0005CEA010206D030228DF804208DF8050080
:101CC00002229046009B83F0080353EA0A030AD1DC
:101CD0005CEA010201D1620705D530228DF80420AB
:101CE0004FF001087F1E582804D034A003900EA89E
:101CF00002900DE036A0F9E753466046009AFEF7E1
:101D0000D7FA84460398825C0298401E02900270C3
:101D10005CEA0100F0D1029806A9081A00F1200A35
:101D2000600702D524F4803400E00127574502DD26
:101D3000A7EB0A0000E0002000EB0A0100900598E4
:101D40004144401A0590E00306D45B462146179AA9
:101D5000059800F0B3F90544002706E001A85A46AB
:101D6000C05D179990476D1C7F1C4745F6DBE0036B
:101D70000CD55B462146179A059800F09FF905445B
:101D800004E030205A46179990476D1C0099481E70
:101D900000900029F5DC08E0029802995A46007884
:101DA000491C0291179990476D1CBAF10001AAF1E4
:101DB000010AF1DC65E1000009280100303132330D
:101DC0003435363738396162636465660000000077
:101DD0003031323334353637383941424344454661
:101DE0000000000000F058F90544761C3078002807
:101DF0007FF4ECAD19B02846BDE8F08F620700D43F
:101E0000062709F1070222F0070CFCE80223E1464D
:101E100003F000485FEA080C02D00FF2702C0DE0CE
:101E20005FEA045C02D50FF2682C07E05FEAC47C2D
:101E300002D00FF2602C01E0AFF2700C4FF0FF38CF
:101E400023F00043CDF850C065280CD006DC4528AF
:101E500009D046281DD047283DD13DE0662818D03E
:101E600067287ED138E00021112F01DB112000E02E
:101E7000781CCDE9000106A90EA8FFF7DDFCDDE91D
:101E80000F010E9A03910021009207F1010A0491BB
:101E90004DE04FF000400097CDE9011006A90EA8D3
:101EA000FFF7CAFCDDE90F0203920E9B1199002295
:101EB000DDF80CA00093049211B9791C00EB010A23
:101EC000B7EB0A0004D4C0F1FF3007F1010A049017
:101ED000AAEB0700019044E0012F00DA012700215E
:101EE000112F01DD112000E03846CDE9000106A9DF
:101EF0000EA8FFF7A1FCDDE90F010E9A0391002166
:101F000004910092BA4621070CD40399514500DA96
:101F10008A46BAF1010F05DD009AAAF10101515C70
:101F2000302908D0B84202DA10F1040F06DA012194
:101F3000CDE9011015E0AAF10101E9E7002805DC6F
:101F4000049901440491AAEB000102E0411C5145AF
:101F500000DD8A460499401A401C01904FF0004071
:101F60000290200704D40198504501DBCDF804808D
:101F700000208DF84F0002980DF14F07B0F1004F8F
:101F800025D02B200E9002984FF0020800280CDA82
:101F9000404202902D200E9007E00A210298FEF7A1
:101FA00071F93031029007F8011DB8F10001A8F174
:101FB0000108F2DC02980028EFD1791E0E98087013
:101FC000307800F0200040F0450007F8020D12A81C
:101FD000C01B00F107081498007800B1012000EB45
:101FE0000A01019801EBE07105984144401A401E36
:101FF0000590E00306D45B462146179A059800F049
:102000005DF805441498007818B15A46179990471E
:102010006D1CE00324D55B462146179A059800F015
:102020004DF805441CE00498002807DBDDE90301B6
:10203000884203DD0098405C179901E01799302031
:102040005A469047049805F10105401C04900198F8
:10205000401E019004D12E205A46179990476D1CBE
:10206000BAF10001AAF1010ADDDC05E017F8010B65
:102070005A46179990476D1CB8F10001A8F1010864
:10208000F4DC5B462146179A0598ABE62D0000006C
:102090002B000000200000002DE9F041044600253F
:1020A0001E461746880404D405E039462020B04770
:1020B0006D1C641EF9D52846BDE8F0812DE9F0417C
:1020C000044600251E469046C80301D5302700E08F
:1020D0002027880404D505E041463846B0476D1CEA
:1020E000641EF9D52846BDE8F0810A68531C0B60D0
:1020F0001070704708B501210520FEF72DFF4FF441
:102100008070ADF8000003208DF8020018208DF8D3
:10211000030069460148FEF78BFB08BD000801403B
:10212000A4B00124FEF70EFDFEF724FDFEF744FDEA
:10213000FFF7E0FF00F090F94FF4E13000F0D2F942
:1021400040F2DC51A548FFF7A8F945E1A448FEF7A5
:10215000A1FCA4480068A4490968A44A1268A44BD9
:102160001B68CDE90032CDE90210A2480368A248FD
:102170000268A2A104A8FFF73BFB04A800F016FA2E
:1021800097498869FEF757F805462A460B46A3A1EA
:1021900004A8FFF72DFB04A800F008FA904988690D
:1021A000A349FEF75BF87DD28D4988690021FEF7CF
:1021B0005FF8F8D29F48FEF77CFE9F48FEF779FE55
:1021C0004FF47A7000F03AF94FF4FA718348FFF750
:1021D00064F94FF47A7000F031F98148FEF75AFC47
:1021E0007F4988699249FEF739F87DD27C49886930
:1021F0000021FEF73DF87BD24FF47A7000F01EF913
:1022000040F6C4117548FFF748F94FF47A7000F0B2
:1022100015F97348FEF73EFC714988698449FEF759
:102220001DF849D26E4988690021FEF721F843D292
:1022300001208049C8778049C8777E48FEF72EFE86
:102240007D48FEF72BFE40F6B83000F0F7F87948ED
:10225000FEF72FFE7848FEF72CFE4FF47A7000F060
:10226000EDF85F48FEF716FC5D4988697049FDF797
:10227000F5FF05D25A4988690021FDF7F9FF50D3CF
:1022800040F2DC515548FFF708F901206949C87749
:1022900000206949C8776748FEF700FE6648FEF7E8
:1022A000FDFD00E03DE040F2DC5000F0C7F8002109
:1022B0006048FEF7A5FD34E040F2DC514748FFF7E7
:1022C000ECF801205B49C87700205B49C877594882
:1022D000FEF7E4FD5848FEF7E1FD40F2DC5000F067
:1022E000ADF80021534800E002E0FEF789FD18E058
:1022F00040F2DC513948FFF7D0F800204D49C8774B
:1023000001204D49C8774B48FEF7C8FD4A48FEF703
:10231000C5FD40F2DC5000F091F800214648FEF780
:102320006FFD8CB100204349C8774349C8776420CA
:10233000404988775520404988773E48FEF7AEFDF2
:102340003D48FEF7ABFD00242B48006880B16421B6
:102350003848FEF76DFD64213748FEF769FD3548C2
:10236000FEF79CFD3448FEF799FD002022490860E5
:102370002048006828B13048FEF79BFD00201D4929
:1023800008601B48006828B12A48FEF792FD00202B
:10239000174908601548006810B10020134908600B
:1023A0001148006898B12448FEF783FD2148FEF7E4
:1023B00080FD41F2883000F041F81F48FEF76EFDC5
:1023C0004FF4487000F03AF80020074908600548CB
:1023D00000680A2000F032F8B8E60000002C014046
:1023E00074000020180000201400002010000020BD
:1023F0000C0000200800002004000020C4A3CABD77
:10240000D4CBD0D0D6D02E2E2E25642025642025E6
:10241000642025642025642025640A0044697374BF
:10242000616E63653A20252E326620636D0D0A00C9
:10243000000020413400002054000020002107E06B
:10244000002200E0521C41F672739A42FADB491CEA
:102450008142F5DB7047000000B587B00121C8025A
:10246000FEF77AFD4720ADF8100044F61F60ADF886
:1024700014000020ADF81600ADF812008DF8180019
:1024800004A91748FFF70CF86020ADF80000012000
:10249000ADF802000020ADF8040040F2DC50ADF8C9
:1024A00006000020ADF80800ADF80A00ADF80C00F9
:1024B000ADF80E0069460A48FEF794FE0821084868
:1024C000FEF7DCFE01210648FEF764FE0121044808
:1024D000FEF778FE01210248FEF768FE07B000BD56
:1024E000002C014010B586B00446012144F20400DE
:1024F000FEF732FD4FF40070ADF8140001208DF8A6
:10250000160018208DF8170005A91E48FEF790F94F
:102510004FF48060ADF8140001208DF816000420FF
:102520008DF8170005A91748FEF782F901940020DD
:10253000ADF80800ADF80A00ADF80C00ADF81000D9
:102540000C20ADF80E0001A90F48FFF7DBF80122BF
:1025500040F225510C48FFF7AFF825208DF8000018
:1025600001208DF8030000208DF801008DF8020095
:102570006846FEF7A9FC01210348FFF75AF806B0A8
:1025800010BD0000000801400038014010B50446AD
:1025900021460548FFF727F900BF80210248FFF7D1
:1025A00054F80028F9D010BD0038014010B5044699
:1025B00003E02078FFF7EAFF641C20780028F8D1B8
:1025C00010BD0000E42500080000002034000000D9
:1025D0001818000818260008340000201C05000008
:1025E00028180008000000000000000000000000A3
:1025F00000000000000000000000000000000000DB
:1026000000000000000000000102030401020304B6
:08261000060708090204060890
:04000005080000ED02
:00000001FF
