:020000040800F2
:10000000B007002089010008910100089301000851
:100010009501000897010008990100080000000000
:100020000000000000000000000000009B0100082C
:100030009D010008000000009F010008A1010008C8
:10004000A3010008A3010008A3010008A301000800
:10005000A3010008A3010008A3010008A3010008F0
:10006000A3010008A3010008A3010008A3010008E0
:10007000A3010008A3010008A3010008A3010008D0
:10008000A3010008A3010008A3010008A3010008C0
:10009000A3010008A3010008A3010008A3010008B0
:1000A000A3010008A3010008A3010008A3010008A0
:1000B000A3010008A3010008A3010008A301000890
:1000C000A3010008A3010008A3010008A301000880
:1000D000A30100080D0F0008A3010008A3010008F8
:1000E000A3010008A3010008A301000800F002F822
:1000F00000F03AF80AA090E8000C82448344AAF188
:100100000107DA4501D100F02FF8AFF2090EBAE885
:100110000F0013F0010F18BFFB1A43F0010318473B
:10012000F816000018170000103A24BF78C878C1EC
:10013000FAD8520724BF30C830C144BF04680C60ED
:10014000704700000023002400250026103A28BF35
:1001500078C1FBD8520728BF30C148BF0B60704739
:100160001FB51FBD10B510BD00F031F81146FFF7E7
:10017000F7FF01F033F800F04FF803B4FFF7F2FF98
:1001800003BC00F057F800000948804709480047C1
:10019000FEE7FEE7FEE7FEE7FEE7FEE7FEE7FEE737
:1001A000FEE7FEE704480549054A064B7047000094
:1001B000010B0008ED000008B0010020B00700208E
:1001C000B0030020B00300207047704770477546A9
:1001D00000F02CF8AE4605006946534620F00700B3
:1001E000854618B020B5FFF7DDFFBDE820404FF091
:1001F00000064FF000074FF000084FF0000B21F011
:100200000701AC46ACE8C009ACE8C009ACE8C009DD
:10021000ACE8C0098D46704710B50446AFF30080C6
:100220002046BDE81040FFF7A8BF00000048704717
:100230005001002001491820ABBEFEE72600020055
:1002400070472DE9F04102460025002600200023DA
:100250000024002791F803C00CF00F0591F803C0AB
:100260000CF0100CBCF1000F03D091F802C04CEA66
:10027000050591F800C0BCF1000F31D014680020D2
:100280002BE04FF0010C0CFA00F3B1F800C00CEABF
:1002900003069E4220D183004FF00F0C0CFA03F7A7
:1002A000BC4305FA03FC4CEA040491F803C0BCF11A
:1002B000280F06D14FF0010C0CFA00FCC2F814C054
:1002C0000AE091F803C0BCF1480F05D14FF0010CD2
:1002D0000CFA00FCC2F810C0401C0828D1D31460EE
:1002E000B1F800C0BCF1FF0F34DD546800202EE0EF
:1002F00000F1080C4FF0010808FA0CF3B1F800C047
:100300000CEA03069E4221D183004FF00F0C0CFA39
:1003100003F7BC4305FA03FC4CEA040491F803C05C
:10032000BCF1280F05D100F1080C08FA0CF8C2F84E
:10033000148091F803C0BCF1480F07D100F1080CFC
:100340004FF0010808FA0CF8C2F81080401C082889
:10035000CED35460BDE8F081F0B50A4600230024F6
:100360000021002500F00046B6F1004F02D11D4EDD
:10037000F16901E01B4E7168C0F3034583B200F4DC
:100380004016B6F5401F08D121F07061154E766811
:1003900026F07066134F7E6012E000F48016B6F50A
:1003A000801F06D1032606FA05F4A14341F07061CF
:1003B00006E0460D360103FA06F6B14341F07061DE
:1003C00022B1460D360103FA06F6314300F000462D
:1003D000B6F1004F02D1034EF16101E0014E7160B0
:1003E000F0BD0000000001404161704701617047AD
:1003F0001FB5044645492068884204D101210420E4
:1004000000F090FA10E042492068884204D10121AE
:10041000082000F087FA07E03E492068884203D1AF
:100420000121102000F07EFA3849A068884204D1EA
:100430000121042000F076FA10E03549A0688842D6
:1004400004D10121082000F06DFA07E03149A068CD
:10045000884203D10121102000F064FA2E4920695E
:10046000884204D10121C01400F05CFA19E020692F
:10047000B0F1804F04D10121084600F043FA10E0AA
:1004800026492069884204D10121022000F03AFA6D
:1004900007E023492069884203D10121042000F0AC
:1004A00031FAA088ADF80C0010208DF80F00032061
:1004B0008DF80E0003A92068FFF7C3FEA089ADF8F0
:1004C0000C0048208DF80F0003A9A068FFF7B9FEC3
:1004D000A1882068FFF788FF4FF6FF70ADF8040091
:1004E0004720ADF800000020ADF80600ADF802008E
:1004F0006946206900F0B8FC0121206900F03CFB4E
:1005000047F2305060610020A0611FBD000801402B
:10051000000C014000100140002C0140000400408C
:100520000008004010B54FF08040084908610848B5
:1005300088604FF480408881054808604FF400408F
:1005400088800846FFF754FF10BD000074000020AB
:10055000000C014010B50C480C4908600020888050
:100560000B488860801588810A480861402088828D
:1005700008488861802088830020C87746208877D3
:10058000084600F02BF810BD002C0140340000207C
:1005900000080140000C014010B50C480C490860EF
:1005A0000C2088800B488860C01488810A48086144
:1005B0008015888208488861401588830020C877A4
:1005C00046208877084600F009F810BD002C01404D
:1005D0005400002000080140000C014010B588B014
:1005E000044679492069884204D10121042000F0A1
:1005F00099F910E075492069884204D10121082049
:1006000000F090F907E072492069884203D1012186
:10061000102000F087F96C49A069884204D10121BB
:10062000042000F07FF910E06849A069884204D1F5
:100630000121082000F076F907E06549A0698842A9
:1006400003D10121102000F06DF95F49A0688842B4
:1006500004D10121042000F065F910E05B49A06895
:10066000884204D10121082000F05CF907E05849D4
:10067000A068884203D10121102000F053F95549A8
:100680002068884204D10121C01400F04BF919E020
:100690002068B0F1804F04D10121084600F032F902
:1006A00010E04D492068884204D10121022000F069
:1006B00029F907E049492068884203D10121042033
:1006C00000F020F9A08AA18B0843ADF81C0010208F
:1006D0008DF81F0003208DF81E0007A92069FFF781
:1006E000B0FDA089ADF81C0018208DF81F00032074
:1006F0008DF81E0007A9A068FFF7A3FDA18A206955
:10070000FFF772FEA18BA069FFF76EFE40F2E730A3
:10071000ADF814004720ADF810000020ADF8160029
:10072000ADF8120004A9206800F09EFB6020ADF82F
:1007300000000120ADF802000020ADF80600ADF881
:100740000800A08840B96946206800F031FA082105
:10075000206800F079FA22E0A088042808D16946D0
:10076000206800F07BFA0821206800F0C9FA16E042
:10077000A088082808D16946206800F0CFFA08212F
:10078000206800F01BFB0AE0A0880C2807D169460E
:10079000206800F01DFB0821206800F057FB0121B4
:1007A000206800F0DDF90121206800F0E5F9094931
:1007B0002068884203D10121206800F0E9F9002077
:1007C000A077E07708B010BD00080140000C0140A0
:1007D00000100140002C01400004004000080040CF
:1007E00070B504460D46E57745B9A18A2069FFF743
:1007F000FDFDA18BA069FFF7F7FD07E0A18A206945
:10080000FFF7F2FDA18BA069FFF7F0FD70BD0000BE
:100810002DE9F04704460E46642E00DD6426A677D7
:10082000304600F0B3FE8146124900F0CDFD80460F
:10083000114900F0F3FE074600F088FE85B2A0885B
:1008400030B1042807D0082808D00C280DD108E0C2
:10085000206885860AE02068058707E0206885878C
:1008600004E02068A0F8405000E000BF00BFBDE8F1
:10087000F08700000000C84200C0794410B504466B
:10088000E17F2046FFF7ACFFA17F2046FFF7C0FFC6
:1008900010BD000070B5002100230F22C47804B3FE
:1008A000154C246804F4E064C4F5E064210AC1F145
:1008B0000403CA40447804FA03F1847814402143C5
:1008C00009010E4C0678A155047804F01F05012497
:1008D000AC4005786D11AD0005F1E025C5F800418B
:1008E00009E0047804F01F050124AC40044D0678AB
:1008F000761145F8264070BD0CED00E000E400E004
:1009000080E100E029B1064AD2690243044BDA6172
:1009100004E0034AD2698243014BDA617047000068
:100920000010024029B1064A92690243044B9A61C1
:1009300004E0034A92698243014B9A6170470000C8
:100940000010024030B500210022002400232D4D6C
:100950006D6805F00C0121B1042905D0082923D1C7
:1009600005E0294D056022E0274D05601FE0254D7B
:100970006D6805F47012234D6D6805F4803402250E
:1009800005EB92421CB9214D554305600BE01D4D0E
:100990006D6805F400351DB11C4D5543056002E03E
:1009A000194D5543056002E0174D056000BF00BFBB
:1009B000144D6D6805F0F0010909154D6B5C056873
:1009C000DD4045600F4D6D6805F4E061090A104D8A
:1009D0006B5C4568DD4085600A4D6D6805F46051CB
:1009E000C90A0B4D6B5C4568DD40C560054D6D68FF
:1009F00005F44041890B074D6B5CC568B5FBF3F509
:100A0000056130BD0010024000127A0000093D006F
:100A1000200000203000002010B500F001F810BDCB
:100A20000CB50020019000903348006840F48030FD
:100A30003149086000BF3048006800F40030009081
:100A40000198401C0190009818B90198B0F5A06F6A
:100A5000F1D12948006800F4003010B10120009065
:100A600001E0002000900098012843D1234800684D
:100A700040F01000214908600846006820F003009B
:100A800008600846006840F0020008601A484068A4
:100A9000194948600846406848600846406840F484
:100AA000806048600846406820F47C104860084632
:100AB000406840F4E81048600846006840F08070E4
:100AC000086000BF0C48006800F000700028F9D0F2
:100AD0000948406820F0030007494860084640681C
:100AE00040F00200486000BF0348406800F00C007E
:100AF0000828F9D10CBD000000100240002002407F
:100B000010B51348006840F001001149086008461C
:100B10004068104908400E494860084600680E4980
:100B200008400B4908600846006820F480200860EF
:100B30000846406820F4FE0048604FF41F008860BB
:100B4000FFF76AFF4FF000600449086010BD000025
:100B5000001002400000FFF8FFFFF6FE08ED00E085
:100B600021B1028842F08002028004E002884FF640
:100B70007F731A400280704721B1028842F001025F
:100B8000028004E002884FF6FE731A40028070472C
:100B900031B1B0F8442042F40042A0F8442005E00E
:100BA000B0F84420C2F30E02A0F8442070470000C1
:100BB00070B5002400220023058C4FF6FE763540E8
:100BC0000584028C8388048B4FF68F752C40B51EEC
:100BD0002C400D882C43751E2A400D892A434D88D0
:100BE0002A43144DA8420BD0134DA84208D0134DF0
:100BF000A84205D0124DA84202D0124DA84213D1EE
:100C00004FF6F7752A404D892A434FF6FB752A4067
:100C10008D882A434FF6FF652B404FF6FF552B403A
:100C20008D892B43CD892B4383800483CD88858692
:100C3000028470BD002C014000340140004001409E
:100C400000440140004801400A460021018B4FF654
:100C5000F7731940114301837047000070B50024F9
:100C600000220023058C4FF6EF7635400584028C78
:100C70008388048B48F6FF752C404FF6FF452C40C7
:100C80000D884FF6FF7606EA05252C434FF6DF75F3
:100C90002A400D8906EA05152A434D8806EA0515FE
:100CA0002A43154DA84202D0144DA8421DD14FF63B
:100CB0007F752A404D894FF6FF7606EA05152A43CF
:100CC0004FF6BF752A408D8806EA05152A434FF670
:100CD000FF352B404FF2FF752B408D8906EA8505C5
:100CE0002B43CD8906EA85052B4383800483CD8879
:100CF0000587028470BD0000002C014000340140D3
:100D00000A460021018B4FF2FF7319404FF6FF7323
:100D100003EA0223194301837047000070B50024E1
:100D200000220023058C4FF6FF6635400584028CB7
:100D30008388848B4FF68F752C404FF6FC752C40C2
:100D40000D882C434FF6FF552A400D894FF6FF764C
:100D500006EA05252A434D8806EA05252A43154D4E
:100D6000A84202D0144DA8421DD14FF2FF752A406F
:100D70004D894FF6FF7606EA05252A434FF6FF35E3
:100D80002A408D8806EA05252A434EF6FF752B403A
:100D90004DF6FF752B408D8906EA05152B43CD894D
:100DA00006EA05152B4383808483CD8885870284DA
:100DB00070BD0000002C0140003401400A460021B3
:100DC000818B4FF6F7731940114381837047000000
:100DD00070B5002200230024058C4EF6FF763540C6
:100DE0000584038C8488828B48F6FF752A404FF671
:100DF000FF452A400D884FF6FF7606EA05252A436F
:100E00004DF6FF752B400D8906EA05352B434D88BD
:100E100006EA05352B430B4DA84202D00A4DA842E5
:100E200008D14BF6FF752C408D894FF6FF7606EA08
:100E300085152C4384808283CD88A0F8405003849C
:100E400070BD0000002C0140003401400A46002122
:100E5000818B4FF2FF7319404FF6FF7303EA0223B1
:100E60001943818370470000002202881D4B98427D
:100E70000ED01D4B98420BD0B0F1804F08D01B4BC9
:100E8000984205D01A4B984202D01A4B984204D18E
:100E90004FF68F731A404B881A43174B984207D06E
:100EA000164B984204D04FF6FF431A40CB881A43A2
:100EB00002808B8883850B8803850A4B98420BD070
:100EC000094B984208D00E4B984205D00D4B9842E2
:100ED00002D00D4B984201D10B7A03860123838205
:100EE00070470000002C0140003401400004004025
:100EF00000080040000C00400010004000140040BA
:100F000000400140004401400048014010B540F25B
:100F10002551284800F07DF8012849D1254800F0E6
:100F200033F904462146234800F033F9A4F1300098
:100F300007281DD2DFE800F004080C1C101418006C
:100F400001201D49086013E001201C4908600FE0E2
:100F500001201B4908600BE001201A49086007E0E6
:100F600001201949086003E001201849086000BF0A
:100F700000BF0A2C08D0164802680068401C144BB9
:100F80001860144884540EE000211148026800687B
:100F9000401C0F4B18600F48815400201946086010
:100FA00001200D49086040F22551024800F016F872
:100FB00010BD00000038014004000020080000209F
:100FC0000C00002010000020140000201800002059
:100FD0001C000020900000200000002010B500221E
:100FE000002340F66A14A14200D100BF0A12012476
:100FF0009440A3B2DC43048010BD21B1828942F445
:101000000052828104E082894DF6FF731A4082818A
:10101000704770B50246002400230025002040F6EA
:101020006A16B14200D100BFC1F3421501F01F039F
:10103000012606FA03F3012D02D19689334006E01A
:10104000022D02D1168A334001E0968A33400C12F9
:10105000012606FA04F41688344013B10CB10120BD
:1010600000E0002070BDF0B50346002400260025F6
:10107000002040F66A17B94200D100BF1846C1F3FC
:10108000421401F01F06012707FA06F5012C01D1D1
:101090000C3004E0022C01D1103000E014301AB101
:1010A00007682F43076002E00768AF430760F0BDA1
:1010B0002DE9F04786B005460E460024A24600BF43
:1010C000A1460027B08900B100BF2F462C8A4CF6FC
:1010D000FF700440F08804432C82AC894EF6F31074
:1010E0000440B08831890843718908430443AC81C6
:1010F000AC8A4FF6FF400440B0890443AC8201A89B
:10110000FFF720FC1F48874202D1DDF810A001E064
:10111000DDF80CA0A88900F4004040B10AEBCA0039
:1011200000EB0A1031684900B0FBF1F807E00AEB68
:10113000CA0000EB0A1031688900B0FBF1F86420A6
:10114000B8FBF0F004012009642101FB1089A88993
:1011500000F4004040B1322000EBC900B0FBF1F0D8
:1011600000F00700044308E0322000EB091064217E
:10117000B0FBF1F000F00F0004432C8106B0BDE895
:10118000F08700000038014001468888C0F308005D
:101190007047C1F3080282807047000008B5012142
:1011A0000820FFF7BFFB01210846FFF7BBFB20200B
:1011B000ADF8000003208DF8020018208DF8030020
:1011C00069460448FFF73DF801210348FFF7C4F8DA
:1011D00008BD0000000C014000081A000124FFF7C0
:1011E000A1F9FFF7B7F9FFF7D7F9FFF7D7FF4FF4EA
:1011F000E13000F089F864E032498869324900F052
:10120000D9F904D22F498869002100F0D3FA002CC3
:1012100035D000202D49C8772D49C87746202B4965
:1012200088772B4988772948FFF728FB2848FFF75C
:1012300025FB41F2883000F059F801202349C87796
:1012400064208877224988772048FFF717FB2048D9
:10125000FFF714FB41F2883000F048F800201B49EA
:10126000C8771B49C8774620184988771849887776
:101270001648FFF703FB1648FFF700FB002415484C
:10128000006838B146211148FFF7C2FA46211048DC
:10129000FFF7BEFA1048006818B164210B48FFF749
:1012A000B7FA0E48006818B164210948FFF7B0FA90
:1012B0000B4800680B4800680B4800680A2000F0E3
:1012C00015F899E774000020000020413400002048
:1012D0005400002004000020080000200C00002022
:1012E000100000201400002018000020002107E05A
:1012F000002200E0521C41F672739A42FADB491C4C
:101300008142F5DB7047000010B586B0044601212C
:1013100044F20400FFF706FB4FF40070ADF8140030
:1013200001208DF8160018208DF8170005A91E4819
:10133000FEF787FF4FF48060ADF8140001208DF8B0
:10134000160004208DF8170005A91748FEF779FF4D
:1013500001940020ADF80800ADF80A00ADF80C00CB
:10136000ADF810000C20ADF80E0001A90F48FFF7F2
:101370009FFE012240F225510C48FFF774FE252004
:101380008DF8000001208DF8030000208DF8010089
:101390008DF802006846FFF77DFA01210348FFF748
:1013A0002CFE06B010BD00000008014000380140CE
:1013B000401058BFC0F14040491058BFC1F14041F2
:1013C0008142EFF3008070474FF47F0C1CEAD0128B
:1013D0001EBF1CEAD11392EA0C0F93EA0C0F00F027
:1013E000858090EA010F48BF42F4807240F4000CFF
:1013F00041F400002CF07F4120F07F4000B5814295
:10140000A2EB03020FF2081CACEB504EC0F100003F
:101410009EF800E04FEA4E0E00FB0EFC38BF49007C
:101420004FEA2C1C02F5FA020CFB0EF34FEACE1E1B
:101430004FEA112C4FEAC1210EEB635E42EB2242D0
:101440000EFB0CFC4FEA1C5300FB03114FEA112C5E
:101450004FEA01310EFB0CFC4FEADC4C00FB0C1197
:10146000C14228BF09184CEB03335DF804EB10EBC5
:10147000410143EBC250B2F57C0F38BF704729D50C
:1014800012F0F00F1CBF00F1C04000F000407047A8
:10149000008182838485868788898B8C8D8E8F914D
:1014A0009293959697999A9C9D9FA0A2A3A5A7A871
:1014B000AAACAEB0B2B3B5B7B9BCBEC0C2C5C7C99D
:1014C000CCCED1D4D7D9DCDFE2E6E9ECF0F3F7FA01
:1014D000FE0000004FEA400C0CF1807CBCF17E4F16
:1014E00028BF7047B0F1C04000F05FB990EA010F2B
:1014F0000CEAD11348BF42F48072624538BF63459D
:1015000007D213F47F0F16D080EA010000F00040EC
:10151000704710B500F003F9097EFC3E00F005B8F5
:1015200080EA010000F00040704780EA010000F00E
:10153000004000F03AB912F47F0F04BF0248704730
:1015400080EA010000F031B90000C07FC10DD1F187
:101550009E0206DB4FEA002343F0004323FA02F029
:101560007047004207D54FEA4001B1F1FE4F02D269
:101570004FF00000704710B500F0D1F84992248078
:10158000002070476FEA200070470000B0FA80F337
:1015900010FA03F2C3F19D030AD0D90501EB122022
:1015A000530638BF704700F1010008BF20F001006A
:1015B0007047000050EA010C00F113801CF5000F89
:1015C00058BFBCF5000F01D48842704707D710F50B
:1015D000000F58BF11F5000F15D48842704789429B
:1015E00070471CF5000F04D5BCF5000FF7D58142FC
:1015F00070474FF0807C1CEB400F38BF1CEB410F55
:1016000001D28142704710B500F089F89224490058
:101610004FF000504FF08051FFF7CABE4FF47F0CDF
:101620001CEAD0121EBF1CEAD11392EA0C0F93EAF7
:101630000C0F00F0478090EA010F48BF42F480721F
:101640004FF0004C4CEA00204CEA012102EB03026F
:10165000A0FB0113A2F50002002918BF43F001030B
:101660005B0028BF4FEA330342EB22425FEA132CB0
:101670004CEBC2502EBFBCEB436FB2F57C0F7047F2
:101680004FEA036CBCF1004F08BF20F00100B2F537
:101690007C0F38BF70470BD582F0FF0212F5803FF8
:1016A000C8BF704700F1C040D8BF00F0004070478D
:1016B00000F5000C5FEA4C0C48BF7047B0F1C04029
:1016C00000F073B890EA010F0CEAD11348BF42F45E
:1016D0008072624538BF634504D280EA010000F0A1
:1016E0000040704710B500F01AF800BF8900013EB5
:1016F00000F007B800F009B85FEA410C5FEA1C6C23
:1017000008D080EA010000F050B85FEA400C5FEAC0
:101710001C6CF6D14FF00040A0F5800070470EF130
:10172000020E2EF0030E5EF8044B244204D44FEA5E
:101730004102B2F17F4F11D84FEA4003B3F17F4F1E
:101740000CD80ED14FEAD07CB2F17F4F0CEB4C0C91
:101750000CF1020C08BF4CEBD17C04E04FF0080CFC
:1017600001E04FEAD17C0CEB4C0324FA03F404F0C3
:101770000704B4F1040C06D20EEB840CBDE8104053
:101780004CF0010C6047DFE80CF0070802024FF054
:101790000040A0F5800010BD0846420018BFD2F1FD
:1017A000807288BF00F0004010BDFF2141EAD05098
:1017B000C005704751EA000C00F113801CF5000FC2
:1017C00058BFBCF5000F01D48142704707D711F50F
:1017D000000F58BF10F5000F15D4814270478942A1
:1017E00070471CF5000F04D5BCF5000FF7D58842F3
:1017F00070474FF0807C1CEB410F38BF1CEB400F53
:1018000001D28842704780EA010081EA000180EA43
:101810000100FFF7F8BE00003818000800000020A3
:1018200034000000280100086C1800083400002073
:101830007C070000440100080000000000000000D8
:101840000000000000000000000000000000000098
:10185000000000000000000000000000010203047E
:0C18600001020304060708090204060840
:04000005080000ED02
:00000001FF
